:020000040002F8
:10200000784300205DC0020097330200CF33020006
:1020100033340200FF340200773502000000000074
:102020000000000000000000000000005737020020
:1020300087370200000000004B3C0200A33E020074
:10204000715102001F3F0200EF8702008F990200CA
:1020500095990200D9740200617C0200C33F02001E
:10206000E19D0200E99D0200F19D0200CB510200BA
:102070000F56020093560200DB640200176502004F
:102080008F91020035820200A7960200579E02003F
:10209000A38202004FAD02003F56020057B5020076
:1020A000F7BE0200B9BF0200F99D0200019E0200C6
:1020B0001BC0020027C0020000000000000000005A
:1020C000B9C00200BBC00200BDC002009D99020061
:1020D000BFC00200C1C00200C3C00200C948020064
:1020E000F5870200C5C00200C7C002000000000062
:1020F00000000000C9C0020000000000CBC00200C8
:1021000000000000000000000000000000000000CF
:1021100000000000000000000000000000000000BF
:1021200000000000000000000000000000000000AF
:10213000000000000000000000000000000000009F
:10214000000000000000000000000000000000008F
:10215000000000000000000000000000000000007F
:10216000000000000000000000000000000000006F
:10217000000000000000000000000000000000005F
:10218000000000000000000000000000000000004F
:10219000000000000000000000000000000000003F
:1021A000000000000000000000000000000000002F
:1021B000000000000000000000000000000000001F
:1021C000000000000000000000000000000000000F
:1021D00000000000000000000000000000000000FF
:1021E00000000000000000000000000000000000EF
:1021F00000000000000000000000000000000000DF
:102200002DE9F04F80460FF21C60A5B017461D4621
:10221000D0E90023CDE91223002004910D900DF1A7
:10222000500A6FF0004900E0E7190020ADF8020005
:1022300012AB4FF0FF3239460DF1020001F08BF87E
:102240000446012C04DA3878441EA441E443E40F28
:10225000BDF8020025280CBFA4F1010BA346BBF179
:10226000010F0EDB3E4616F8011B0498C0470028FC
:10227000049000F0D2820D98401CBBF1010B0D9030
:10228000F1D1BDF80200252807D100200790089061
:1022900009900A900B900C9005E00028C4D10D988D
:1022A000BDE240F0010017F8011F2029F9D02329D1
:1022B0000DD02B2904D02D2906D030290AD00CE0CE
:1022C00040F0020080B2EEE740F00400FAE740F090
:1022D0000800F7E740F01000F4E72A290ED129683A
:1022E000296051F8042B2960002A0F9204D551422D
:1022F00040F004000F9180B27F1C11E000210F918B
:1023000009E00F99494505D001EB810302EB430138
:1023100030390F917F1C3A78A2F130010A29F0D3AD
:1023200039782E2903D04FF0FF310E911DE017F8B8
:10233000011F2A2907D1296829607F1C51F8042B25
:1023400029600E9211E000210E9109E00E99494595
:1023500005D001EB810302EB430130390E917F1C64
:102360003A78A2F130010A29F0D3ADF840000FF21B
:10237000BC40397801F004F808B117F8010B8DF86A
:1023800042009DF84200682802BF3978682962201F
:1023900005D06C2804BF38786C2803D171208DF8E3
:1023A00042007F1C14A8069017F8014BB4F12500D9
:1023B0002AD01C3800F0CB80001F022840F2C780D2
:1023C000133800F0EC80093800F0C180801E00F066
:1023D0005381401E00F02C81401E022840F2B7803D
:1023E000001F00F02581401F00F08280401E00F099
:1023F000D680401E2CD0C01E0BD0801E00F0CF8097
:10240000C01E00F0CC805AE125208DF8500001203C
:102410005EE19DF842006C282868286014D050F8CE
:10242000046B286005960E9C002C04D5304600F005
:10243000B3FF044606E022460021304600F0C8FF04
:1024400000B1841B089444E150F8042B28602FE16C
:10245000296829603C2451F8040B29600021CDE94A
:10246000020114A80590DDE90201069E11B908B920
:102470000E9AB2B10206120FA0EB02123032D2B2A3
:10248000631E3A2AA8BF2732000940EA01700909F1
:102490009A5508BF00281C4603D0059AA3199A42F2
:1024A000E8D3A0190590C4F13C010E98089181422F
:1024B00009DA401A0A904FF6EF71BDF84000084063
:1024C000ADF8400005E1002840F103819DF840008F
:1024D00000F01400102840F0FC800F98079A801A32
:1024E0000A9A801A441A012CC0F2F3800A94F0E090
:1024F0009DF8420062281AD0682806D06A280CD0BD
:102500006C281CD0712808D019E02868286050F881
:10251000041B28600D980880DBE02868286050F8CC
:10252000042B28600D98C117C2E90001D1E028688A
:10253000286050F8041B28600D980870C9E02868CE
:10254000286050F8041B28600D980860C1E02868D6
:10255000C01D20F007022A60D2E9000108322A607B
:10256000CDE90201002902D507982D210AE0BDF826
:102570004000810702D507982B2103E0C00705D54D
:102580000798202100F80A10401C079014A807990A
:1025900008180590214602A800F090FB99E09DF8EC
:1025A00042006C280DD0712818BF6A2809D128680C
:1025B000C01D20F007022A60D2E9000108322A601B
:1025C00005E02968296051F8040B29600021CDE954
:1025D00002019DF84200682803D1DDE9020180B2C2
:1025E0000BE0622803D1DDE90201C0B205E07428E6
:1025F00018BF7A2804D1DDE902010021CDE90201EA
:102600009DF8400000072ED5DDE90201002908BF32
:10261000002828D044F02000782824D107983021C1
:1026200000F80A10401C411C079100F80A401AE00B
:102630009DF84200294600F0FDF8CDE9020100298D
:1026400002DA07982D210AE0BDF84000810702D583
:1026500007982B2103E0C00705D50798202100F833
:102660000A10401C079014A80799081805902146E5
:1026700002A800F09FFA2CE09DF842006C2809D0D7
:10268000012007902868286050F8041B28608DF806
:1026900050101EE02868286001AA50F8041B28602A
:1026A000ADF804100020ADF806004FF0FF300E909A
:1026B00002A9404600F0F5F800280AD5ADE0252033
:1026C0008DF85000012007901CB18AF801400220CB
:1026D00007900F980799401A0A99401A0899401ACA
:1026E0000B99401A0999401A0C99441A9DF8400018
:1026F000400710D420208DF80000002609E00123B7
:1027000000AA02A9404600F001FE002840F08580A2
:10271000761CA642F3DB079E0DF1500B0AE01BF876
:10272000011B0498C0470028049076D00D98401CE7
:102730000D90761E002EF2D130208DF800004FF063
:10274000000B0A9E09E0012300AA02A9404600F0FE
:10275000DDFD002861D10BF1010BB345F3DB089ED1
:10276000DDF814B00AE01BF8011B0498C0470028EC
:10277000049052D00D98401C0D90761E002EF2D180
:1027800030208DF800004FF0000B0B9E09E0012374
:1027900000AA02A9404600F0B9FD00283DD10BF186
:1027A000010BB345F3DB05980899099E01EB000B7B
:1027B00009E01BF8011B0498C047049068B30D980A
:1027C000401C0D90761E002EF3D130208DF80000B5
:1027D0004FF0000B0C9E08E0012300AA02A940461E
:1027E00000F094FDC8B90BF1010BB345F4DB9DF883
:1027F000400040077FF519AD20208DF8000000262D
:1028000000E0761CA642BFF610AD012300AA02A983
:10281000404600F07BFD0028F3D04FF0FF3025B09C
:10282000BDE8F08F0000000000000000686A6C74D2
:102830007A4C0000622826D068281DD06A2808D06B
:102840006C2827D0712804D0742823D07A280CD083
:1028500020E00868C01D20F007000860D0E90023D0
:10286000083008601946104670470A680A6052F836
:10287000040B0A60002170470A680A6052F8040BD2
:102880000A6000B20BE00A680A6052F8040B0A60A2
:1028900040B204E00A680A6052F8040B0A60C117EB
:1028A00070472DE9F44F0D4694B0D5F830B0BBF128
:1028B000000F804648BF6FF0004B00F0B5FD696B1C
:1028C000401801900FF67420D0E90023CDE90223CF
:1028D00095F83800400702D40198412806D24020DC
:1028E0000DF1100A01904FF0000909E000F0A2FD7F
:1028F0005FEA000AF7D14FF0FF3058E1ABEB040B71
:10290000BBF1010FC0F2CD801498018802AA0DF12D
:10291000010000F0E7FD0028044600F1D58014987E
:10292000008810B9641E00F1CF80A345C0F2B980C1
:10293000686901992218914280F0A180296AC5F83E
:1029400034904042401AA969401A696A401AE969FC
:10295000401AA96AA0EB010995F83800400710D485
:1029600020208DF80000002609E0012300AA294656
:10297000404600F0CBFC002840F0A680761C4E4577
:10298000F3DB6E6957460BE017F8011BA868C047D8
:102990000028A86000F09880E86A401CE862761E73
:1029A000002EF1D130208DF8000000272E6A09E0BA
:1029B000012300AA2946404600F0A8FC002840F068
:1029C00083807F1CB742F3DBAE69EF680AE017F83B
:1029D000011BA868C0470028A86075D0E86A401CA1
:1029E000E862761E002EF2D130208DF8000000271C
:1029F0006E6A08E0012300AA2946404600F086FCE2
:102A0000002861D17F1CB742F4DBE868A969EE6950
:102A10000F180AE017F8011BA868C0470028A86033
:102A200052D0E86A401CE862761E002EF2D13020B7
:102A30008DF800000027AE6A08E0012300AA2946AD
:102A4000404600F063FC00283ED17F1CB742F4DB17
:102A500095F8380040070ED520208DF8000000269C
:102A600007E0012300AA2946404600F04FFC58BB6E
:102A7000761C4E45F5DB4FF00009C5F81490224650
:102A800068690DF10101504400F03AFD68692018B1
:102A900068611498801C1490801E008800287FF4C0
:102AA0002DAF686B6969401A296A401AA969401AF2
:102AB000696A401AE969401AA96A471A95F8380004
:102AC000400710D400240CE04FF0FF3968E0A868FC
:102AD0002021C0470028A860F6D0E86A401CE862C0
:102AE000641CBC42F3DB6B6952462946404600F049
:102AF0000DFC0028E8D12C6A002609E0A8683021E6
:102B0000C0470028A860DFD0E86A401CE862761C55
:102B1000A642F3DBAB69EA682946404600F0F6FBC3
:102B20000028D1D16C6A002609E0A8683021C0478E
:102B30000028A860C8D0E86A401CE862761CA6425B
:102B4000F3DBE868A969EB690A182946404600F0FA
:102B5000DDFB0028B8D1AC6A002609E0A868302166
:102B6000C0470028A860AFD0E86A401CE862761C25
:102B7000A642F3DB95F8380040070DD5002409E0A4
:102B8000A8682021C0470028A8609DD0E86A401CA2
:102B9000E862641CBC42F3DBC5F81490C5F83490BD
:102BA00004A882451CBF504600F0E6FC484615B01C
:102BB000BDE8F08F2DE9FA4E05460A462F696F2AC7
:102BC00008BF082405D041F02000782814BF0A244B
:102BD00010243C26D5E90001642A18BF692A8146E1
:102BE0008A4605D1002903DAD9F100096AEB4A0ABD
:102BF000BAF1000F08BFB9F1000F0CD1286B50B922
:102C0000082C36D195F83800000732D530203B2605
:102C100087F83B002DE0E31748465146224600F076
:102C2000EBFCA4FB0023A9EB02023032D2B2A6F1E6
:102C3000010B3A2A5E4603DB9DF80030513B9A189F
:102C400081465FEA010A0BF8072008BFB9F1000FBF
:102C500003D0E868F1198842DDD3082C09D195F832
:102C60003800000705D5F05D302802D0761E3020F0
:102C7000F055C6F13C00A861F119E960296B884262
:102C800008DA081A28624FF6EF71288F0840288763
:102C9000BDE8F38E00290ED595F8381001F0140127
:102CA000102908D1696B6A69891A2A6A891A0E1A69
:102CB000012EA8BF2E62BDE8F38E00002DE9F24F71
:102CC00004468EB0D4E90001CDE9020104AF9DF8BD
:102CD000380040F0200BBBF1610F0AD0206B0028B8
:102CE00048BF062004D408BFBBF1670F01D1012003
:102CF00020636168C1F30A5040F2FF7290421CD118
:102D0000080304BF2068002809D10320A0619DF8B2
:102D1000380061381A2836D30FF2346108E00320F6
:102D2000A0619DF8380061381A2829D30FF2186184
:102D3000E068032200F0E4FBBEE1012816DA204639
:102D400000F0D1FC012811DB00250020BBF1610F50
:102D500020D1E168302201F8012B4A1CE2609DF885
:102D60003820612A0CBF782258220FE0626840F2B6
:102D7000FE3161F31E52451A62604FF0FF30E5E705
:102D80000FF2C051D4E70FF2C451D1E70A70616964
:102D9000891C616110B90026002584E1BBF1610F37
:102DA00040F09780206BD4E900AB00284CBF21266F
:102DB000461CDDE902010022002300F0B5FC36B21A
:102DC0003ABF8BF00040CDE902A0CDE902AB06F19D
:102DD00001082D1F8DF810200DF1110700E0C71D0F
:102DE000B8F1010F33DBDDE902010022002300F01E
:102DF000B3FC2CD21C2102A800F0C6FCDDE90201C4
:102E000000F04EFDA8F10708B8F1010F814609DB7B
:102E100000F072FD02460B46DDE9020100F084FD80
:102E2000CDE90201F81D072105E009F00F0200F8C5
:102E3000012D4FEA2919B9F1010F01DB491EF4D523
:102E4000491E5CBF002200F8012DF9D5C7E70DF13E
:102E50001100391AB142B8BF0E4636B230000DF13A
:102E600011072FD4884206DA04A9411849780829A5
:102E7000A8BF0F2100DA002104AA821800E0761E04
:102E800012F80139401E8B42F9D00F2904D104A950
:102E900041184A78521C4A70002802D504AF761CAB
:102EA0002D1D36B2701E0DD4C1190A783032D2B23F
:102EB0003A2A03DB9DF838303A3B9A18401E01F855
:102EC0000129F2D5206B002840F1ED80701E2063AF
:102ED000E9E0DDE902010022002300F025FC3CBF0F
:102EE00081F00041CDE902012DB247F297506843CD
:102EF0004B49DFF8309190FBF1F52DB2C5F1070A8F
:102F0000BAF1010F90461CDBDDE902675FEACA7087
:102F100007D542464B463046394600F0C5FD0646C9
:102F20000F464046494642464B464FEA6A0A00F081
:102F3000BBFDBAF1000F80468946E7D1CDE90267B3
:102F400024E0CAF1000A0026374F14E05FEACA7095
:102F500007D542464B463046394600F0A5FD0646A9
:102F60000F464046494642464B4600F09DFD4FEA1B
:102F70006A0A80468946BAF1000FE7D1DDE902010D
:102F800032463B4600F062FECDE90201BBF1660F1E
:102F9000216BDFF898900CBF05F10A000620461857
:102FA000142EA8BF132630208DF810000DF1110744
:102FB000012E3DDBDDE9020100F088FC07F108018C
:102FC00004220A23B0FBF3F303EB8307A0EB4700D3
:102FD000303001F8010C0A20B3FBF0F000EB800761
:102FE000A3EB47033033521E01F8023DE9D1083EFE
:102FF000012E01F10807DBDBDDE9020100F066FCD0
:1030000000F084FC02460B46DDE9020100F08CFC76
:1030100000224B4600F048FDCDE90201CAE700BF9F
:10302000A0860100000024400000F03F84D79741B3
:103030000DF11100381A0DF1110702E0401E6D1E4E
:103040007F1C39783029F9D0BBF1660F02D12DB23F
:10305000691C04E0BBF1650F0CBF01210021226B4C
:103060008E1836B2B042B8BF064636B231001AD416
:10307000814204DAC85D3528A8BF392000DA302043
:10308000CA19521E00E0761E12F80139491E834209
:10309000F9D0392802D1C85D401CC855002902D595
:1030A0007F1E761C6D1C2DB29DF83810009533B232
:1030B0003A46204600F003F80FB0BDE8F08F2DE946
:1030C000F04786B006468A4690461D4600F007FF48
:1030D000012D406A376B90F8009002DA01250FF25B
:1030E00074284AF02000BDF93840662808BF641CE7
:1030F00012D0672876D114F1040F79DBBC4277DA5D
:1031000096F83800641C000702D4BD42B8BF2F46B1
:1031100024B23F1B48BF002724B2F068B169012CDC
:1031200021DA4A1C30230B54012F03DA96F83810A9
:10313000090702D502F80090521CE742B8BF7C4252
:1031400024B2E7196142AF42B2617162B8BF3D4635
:10315000B3692DB2F5612A464146181800F0D0F93E
:10316000781BB062BBE00818A54216DA2A46414631
:1031700000F0C6F9B1696918601B012FB161706276
:1031800003DA96F83800000705D5F06801F80090DA
:10319000F069401CF061B762A1E02246414600F0B0
:1031A000AFF9B06920182D1B012F03DA96F83810FB
:1031B000090703D5F16800F80190401CB0612DB2F9
:1031C000AF42B8BF3D46F068B3692DB22A4604EB62
:1031D0000801181800F094F9B0692818B061781B3C
:1031E00070627CE0BAF1610F14D14FF0700A16E002
:1031F000BD4204DA96F83810090758BF2F467F1EE3
:1032000048BF0027BAF1670F14BF4FF0450A4FF0CF
:10321000650A04E0BAF1410F08BF4FF0500AB169E6
:10322000F06818F8013B0B544A1C012F05DA96F898
:103230003810090758BFB26115D502F80090531C29
:10324000012FB3610FDB6D1E2DB2AF42B8BF3D46FB
:103250002DB22A464146181800F052F9B0692818D4
:10326000B061781B7062F068B1690918200081F8BC
:1032700000A004D42B20487001F1020804E02D22A4
:103280004A7001F102086442002502AF08E00A22F8
:1032900000A800F03DFE019807F8010B6D1C009C92
:1032A00021B20129F3DA022D06DA4AF0200065285E
:1032B00004BF302008F8010B4DB9302008F8010B8D
:1032C00007E06D1E02A8285C303008F8010B012DC4
:1032D000F7DAF068B1690818A8EB0000F06196F819
:1032E000380000F0140010280DD17069B169081879
:1032F000716A0818F1690818B16A0818716B884278
:10330000BCBF081A306206B0BDE8F087F8B50446C5
:103310000D4616461F46002004E0E86A401CE8629D
:103320007F1E002047B116F8011BA868A04700289F
:10333000A860F2D14FF0FF30F2BD000000000000A5
:10334000000000006E616E004E414E00696E660026
:10335000494E46003000F8B504460D4616461F4655
:1033600000F0DEFD3B4632462946204601B0BDE86E
:10337000F04000F0ECBD0268531C03601170704710
:103380000278C9B28A421AB11CBF10F8012FF9E7BE
:1033900018BF00207047FEE700F10103810704D049
:1033A00010F8011B89B18107FAD10268B2F101312D
:1033B000914311F0803F04BF50F8042FF6E710F856
:1033C000011B11B110F8011BFBE7C01A7047FEE7A3
:1033D000C9B2830706D0521E22D310F8013B99428E
:1033E000F7D11FE0083A13D302F1040241EA0121A8
:1033F00041EA014150F8043B121F21BF4B40A3F1A9
:10340000013C2CEA030C1CF0803FF3D0C9B2001F32
:10341000083210F8013B521E28BF91EA030FF8D87A
:1034200018BF0120401E704780B500F079FD0120D3
:1034300002BDFEE770B5054605F10F00C408C046A1
:10344000C046E400A54232D2082C04D2082402E08F
:10345000083000F091F82248026811000CD1011DDB
:103460000A6802B31368A34238BF111DF8D310E0F5
:103470001D68A5420DD2191D0B68002BF8D11268EA
:10348000011D00E0191D0B6893420CD01D68A54278
:10349000F8D361B10D682A68A2F10803A3420AD2E9
:1034A0006A680A600FE000F075FD0028D0D1C046C0
:1034B000C046002070BD63190B60121B6E685E6011
:1034C0000B681A602C60096800291DBF4A68002A31
:1034D000091D00210160C046C04605F1080070BD0D
:1034E000503B002070B504460D46164600F018FD0E
:1034F000324629462046BDE8704000F01BBDFEE77D
:1035000062B38B0708D0521E11F8013B00F8013B53
:1035100000F024808B07F6D1830740F0208000BFA5
:10352000103A07D330B4B1E83810103AA0E8381098
:10353000F9D230BC530724BFB1E80810A0E8081046
:1035400044BF51F8043B40F8043BD20724BF31F894
:10355000022B20F8022B44BF0B7803707047083A07
:1035600007D3B1E80810083A40F8043B40F804CB10
:10357000F7D25307E4E7FEE700B9704738B5A0F18A
:1035800008042068082833D310F0070F30D1C04654
:10359000C0461848416809B18C4203D2616044605A
:1035A00017E019464B680BB1A342FAD30B685D18BC
:1035B000AC421BD3A54204D12268D2180A600C4643
:1035C00007E04A681AB123681B199A420ED3626059
:1035D0004C60616851B1226813198B4206D10023F7
:1035E000036008688018206048686060C046C04674
:1035F00031BD0000503B00201B4213D1094236D19F
:103600002AB18446B0FBF2F002FB10C2704700F012
:10361000D7BCFCD30022002370470B00020000211E
:1036200000207047904271EB030CF6D370B5B1FAED
:1036300081F4B3FA83F52C1BA340C4F1200532FAC0
:1036400005F63343A2405FF00046E64002E05B0827
:103650005FEA3202841A71EB030524BF2046294633
:103660007641F4D302000B003000002170BD012A26
:10367000CFD970B5140C20D0B1FA81F4B2FA82F52A
:10368000C4F120046419B4F12006D6D3B2405FF02F
:103690000044F440002502E052085FEA3303C61AF2
:1036A00071EB020E24BF3046714664416D41F3D385
:1036B00002000B002000290070BD0C46B1FBF2F1A6
:1036C00002FB11452D0445EA1045B5FBF2F402FB5F
:1036D000145580B240EA0545B5FBF2F002FB1052EA
:1036E00040EA044070BD30B4436803F00042012159
:1036F0001B031B0B436004BF0368002B08D10DE0C4
:103700000368DD0F45EA440444605B000360491E22
:103710004468E302F4D523031B0B436043681A4358
:103720004260084630BC70474FF4001C1CEB410F50
:1037300094BF1CEB430F09E041EA030C50EA4C0C28
:1037400052EA0C0C03D2994208BF9042704714BF52
:103750008B4282427047FEE74FF4001C1CEB410F86
:1037600094BF1CEB430F09E041EA030C50EA4C0CF8
:1037700052EA0C0C03D28B4208BF8242704714BF3E
:10378000994290427047FEE770B504460D46606866
:10379000C0F30A5040F2FF71884207D1606800030D
:1037A00004BF2068002817D0022070BD20B9204631
:1037B000FFF799FF012868DA012D0FDB40F2FF7156
:1037C000091A8D420AD3606800284CBF9FED300B68
:1037D0009FED310B84ED000B012070BD4142A942E9
:1037E000616806DA6FF31E51401941EA00506060CB
:1037F00042E0401E63684519012205F1350062F37D
:103800001F53352801F00041636003D3616000203D
:10381000206070BD002215F11F0F04DA22682360BA
:10382000002020356060684214D0521E2568924105
:10383000C0F12003D2439D4045EAD272256825FAA3
:1038400000F6656805FA03F333432360636823FADF
:1038500000F5656060680843B2F1004F606003D80E
:103860000DD12078C0070AD52068401C2060206850
:1038700028B96068401C60604FF0FF3070BD606820
:10388000884204BF20680028F6D1002070BD00BF28
:10389000000000000000F0FF000000000000F07FCA
:1038A000F446400D40EAC120490006D200F014F869
:1038B000004248BF6FF00040604700F00DF84FF045
:1038C000004188428CBF084640426047400D40EAB4
:1038D000C120490080F00D8040F00040490DA1F565
:1038E0008061491C05D4D1F11F0154BFC840C017E5
:1038F00070474FF000007047010040F10980F44626
:10390000404200F005F851F000416047010000BF5F
:1039100009D0B0FA80F18840C91CC1F5846109055D
:1039200001EBD02140057047F0B44FF0004591EA1B
:10393000030F44BF6B4000F045BB00BF841A71EB1E
:10394000030604D26E40001BB141121973414FF4BB
:10395000001C1CEB410F34BF7CEB430684E00C0DD4
:10396000A4EB1356362E7DDC012E43DC45EAC3233F
:1039700043EA525312BFD20292025B08240545EA81
:10398000C12141EA5051D2EBC020994125D407D141
:10399000B0FA80F610FA06F164D00020203608E074
:1039A000B1FA81F6B140C6F1200220FA02F21143C9
:1039B000B0404FEAF474B4EB465434F001064FEAD9
:1039C00074040AD8D6F50016760D04F00044F040D1
:1039D00061FA06F25040F1404840C00A40EA4150C6
:1039E00021F0004128BF5FEA500550F1000044EB90
:1039F000D12137E045EAC323DB0A45EAC121C90AE0
:103A0000B6F120050EDD42EA0242120CC5F1200695
:103A100003FA06F6EB4042EA06056D42984161F171
:103A200000010DE062FA06F5F240554063FA06FC2B
:103A300082EA0C02F3405A406D42904161EB03016F
:103A400011F4801F05D1641E620502D06D00404153
:103A5000494121F48011430875F1004350F1000001
:103A600041EB0451F0BC70471CEB410F15D223F021
:103A7000004352EA43060BD04FEA4C0CBCEB410F1B
:103A800004D80C0D661E342EB7DDEBE7801A994181
:103A900050EA410608BF0021E4E708BF1CEB430FD2
:103AA00028BF6FF00001DDE7B0B581EA030C0CF030
:103AB000004C40F2FF7515EA11541DBF15EA13576B
:103AC000AC42AF4239E0E41923EA455343F4801392
:103AD000C90241F0004141EA505EC7021100A7FB54
:103AE000020200284FF00000EEFB01204FF0000121
:103AF000E3FB072118BF42F00102401800214941B1
:103B0000E3FB0E01A4F580640F0302D25200404192
:103B1000494154F101046CDD470872F1004250F153
:103B2000000051EB0451A1F580115CBF41EA0C018A
:103B3000B0BD4CEA05510020B0BD05EA1357AC42B8
:103B400014BFAF4241E050EA410E1CBF52EA430E9F
:103B500002E061460020B0BD24423C441BD15FEA34
:103B6000070EF6D0090302BF01460020AEF1140E85
:103B7000B1FA81F7AEEB070401FA07FE0C37C7F183
:103B8000200100FA07F7C8404EEA000E23EA455329
:103B900043F48013A2E733F00043B3FA83F704BF82
:103BA000B2FA82FE77440B3FE41BB7F1200E2FBF21
:103BB00002FA0EF3BB40C7F1200E22FA0EFE38BF08
:103BC00043EA0E03BA40641C82E750EA410E14BF78
:103BD00052EA430E6FF000014FF4001717EB430F4A
:103BE0008ABF194617EB410FB5E74CEA0551002093
:103BF000B0BDD4F10104B4F120070FDAC4F12007FD
:103C0000520828BF42F0010210FA07F501FA07F73F
:103C1000E1BF2A43E0403843E1400FE0352C98DC17
:103C2000C7F1200452EA400220FA07F218BF42F01E
:103C3000010231FA07F0A1400A43002172F100426B
:103C400050F1000051EB0C01B0BDFEE72DE9F04151
:103C500040F2FF7581EA030C0CF0004C15EA115498
:103C60001DBF15EA1357AC42AF42E9E0BC41C1F3B6
:103C70001301C3F31303801A994143F4801304D250
:103C8000641E4000494180185941C90241EA50511F
:103C9000B1FBF3F603FB1611A2FB0675D7EBC020B0
:103CA000A94102D2761E80185941C90241EA5051F9
:103CB000B1FBF3FE03FB1E11A2FB0E75D7EBC02078
:103CC000A94103D2AEF1010E80185941890241EA9F
:103CD0009051760546EA8E2EB1FBF3F603FB1611E2
:103CE000A2FB0675D7EB8020A94102D2761E801870
:103CF0005941C90241EA50514EEA060EB1FBF3F6B2
:103D000003FB1611A2FB0675D7EBC020A94102D216
:103D1000761E80185941C90241EA5051B1FBF3F7B0
:103D200003FB1711A2FB0735D3EBC020A94167F1B4
:103D300000070CBF004247F0010766F3D5274FEAA2
:103D40001E31B80814F5806414DDBD0775F100421A
:103D500050EB0E5051EB045111F5801F5CBF41EA4E
:103D60000C01BDE8F0814CF07F6141F0E0410020A2
:103D7000BDE8F081BD076D0840EA0E5041F48011A6
:103D8000D4F10104B4F120060ADAC4F120060200DD
:103D9000E04001FA06F3E1401843B24015430EE05B
:103DA000342C14DCC6F1200445EA40056D0820FAE5
:103DB00006F2154321FA06F0A1400D43002175F1EA
:103DC000004250F1000051EB0C01BDE8F0810020F1
:103DD0005FEA0C01BDE8F081CFB992185B41B3FAFC
:103DE00083F704BFB2FA82F6BF190B3FB7F1200682
:103DF0002FBF02FA06F3BB40C7F1200622FA06F6EF
:103E000038BF3343BA401CB1E419641E2FE77F4228
:103E100031F00041B1FA81F404BFB0FA80F6A41980
:103E20000B3CB4F120062FBF00FA06F1A140C4F10B
:103E3000200620FA06F638BF3143A0403C1B16E7A7
:103E4000AC421ABF05EA1357AF4214E050EA4106EC
:103E50001CBF52EA4306BFE750EA410730466146BD
:103E60001CBF41EA0551BDE8F08152EA430C08BF8E
:103E7000C143BDE8F08100204FF4001616EB410F5E
:103E800098BF16EB430F08BF16EB410F24BFC14389
:103E900005E016EB430F0CBF61464CEA0551BDE847
:103EA000F081FEE780B51348C046C0460FF24C02D1
:103EB0000FF244010160426241600FF244028263EA
:103EC00081600FF24402C1600161416181618162E0
:103ED000C16201634163C2630164416401BD10B505
:103EE0000448C046C0460446206808B9FFF7DAFF18
:103EF000204610BD74230020000000002E000000AA
:103F000066616C73650000007472756500000000E6
:103F100091FBF2F303FB1211C0E900317047FEE799
:103F200080B5DFF80C00C046C046806902BD0000C5
:103F30000424002030B430B90FF24800D0E9004525
:103F4000C2E900451BE00170012030BC704730B46D
:103F500031B90FF23800D0E90045C3E900450EE061
:103F60001AB930BC6FF00100704708B10A780280BE
:103F70000978481E804130BCC043C00F7047002004
:103F800030BC70470000000000000000000000008E
:103F9000000000000749086808B100207047064883
:103FA000C008C00008600549C908C900091A0160B5
:103FB000704700BF683B00207F4300207845002009
:103FC0007047FEE7841A71EB030603D2001BB14170
:103FD000121973414FF4001C1CEB410F34BF7CEBF2
:103FE000430443E00C0DA4EB1356352E50DC45EA98
:103FF000C323DB0A45EAC121C912B6F120050DDD54
:1040000063FA05F6EB4086EA0305124218BF45F055
:104010000105C01851F100010CD213E062FA06F557
:10402000F2405540F3415A40B340F3405A408018A3
:10403000594107D349085FEA30005FEA350528BFD8
:1040400045F0010501F58011420875F1004250F17B
:10405000000041EB0451F0BC4FF4001C1CEB410F7D
:1040600038BF70470020090D090570471CEB410F50
:1040700010D252EA43060BD0BCEB410F05D80C0D11
:10408000AB43661E342EB5DD02E0AB4380185941C8
:10409000F0BC7047F0BC7047DFF8501C420951F883
:1040A000221000F01F0021FA00F219E0DFF8402C86
:1040B0000121815000F0DFBEDFF8342C0021815057
:1040C00000F0D9BEDFF8281C40586FE000F00F0167
:1040D000DFF8082C00064CBF1068506820FA01F287
:1040E00002F001007047DFF8980C0178082901BF41
:1040F000017911F00F0F017A11F0F00F06D1007B5A
:1041000000F0F000401E8041C00F70470020704753
:1041100010B550E8004F04EA010240E8002393F094
:10412000000FF6D1104610BD010600F00F004CBF85
:104130000FF210010FF218010122405C02FA00F0A8
:104140007047000002030405060708090B00000081
:104150000C0D0E0F101112131400000030B54C6836
:104160009C4204D2002545600968016007E0436075
:10417000E41A0D6805604C600868181808609A42D7
:1041800003D1200002D0012000E00020C0B230BDE9
:104190004B689A4288BF1A460B68036042604868C1
:1041A000801A4860086810180860486800B101204B
:1041B000C0B270474B689A4288BF1A46002A0CBFAB
:1041C00000230B68036042604868801A48600868F2
:1041D00010180860100018BF0120C0B27047F8B571
:1041E0000C4605466068DFF87C7C216816468642EE
:1041F00088BF064632463846FFF782F92F606E6068
:104200006068801B6060206830182060606800B1C2
:104210000120C0B2F2BDF8B50C46064660681546EE
:10422000854288BF054645B1DFF8387C21682A46BB
:104230003846FFF765F9376001E0002030607560AF
:104240006068401B6060206828182060280018BF44
:104250000120C0B2F2BDDFF85C1C020648BF9031FD
:1042600000F00F0001EB0010704701064CBF002169
:10427000102100F00F004018C0B270471028ACBFEA
:10428000103840F08000C0B2704701064CBF0421D6
:10429000282100F00F0001EB8000C0B206E72DE9F5
:1042A000F04383B0804600208DF804004FF00109F0
:1042B00001A800F009FF4046FFF7CDFF05465FEA81
:1042C0000860DFF8307C40461AD4FFF7CEFFFE6866
:1042D000F14321FA00F2D00703D5404600F00CFE6E
:1042E0000BE00020286000F084FE00F031F8B9688F
:1042F00009FA00F021EA0000B8600320A8731EE06C
:10430000FFF7B3FFBC68FE6866EA040121FA00F219
:10431000D00714D500F06DFE00F01AF809FA00F08D
:104320002043B860002028600320A8730FF21C000F
:104330000068796800908DF8028000A888479DF891
:10434000040000F0DCFEBDE8F78300000600000377
:1043500009FA00F026EA0000F860404685E79EE78B
:1043600070B5DFF8EC4BA168E068090C50EA014534
:1043700008E095FAA5F000F0A3FAFFF790FF0120FE
:10438000B0408543F5D140F2FF10A06070BD80B50C
:10439000DFF8BC1B0020487088700FF21000006826
:1043A0004968009000A8884701BD00000100000096
:1043B00038B5DFF8A00B0468046000F091FC002C15
:1043C00004E000F0C3F90120A8408443F9D131BDD5
:1043D00070B500F03DF801262846FFF73CFF817BD1
:1043E00003291CBF006800280AD12846FFF73DFFBB
:1043F00006FA00F0C14304F10C00BDE8704087E606
:1044000070BD70B500F024F882B02846FFF723FF96
:104410000126817B032907D12846FFF726FF06FAEC
:1044200000F000F042F910E0006870B92846FFF78C
:104430001CFF06FA00F000F038F90FF6FC3000F02F
:104440007AF88DF8025000A8884700F091F973BD02
:104450000546DFF8FC4A0020E070704738B500F0F0
:1044600041F88020FFF7F7FE817B03291CBF00681D
:1044700000280AD18020FFF7F8FE05FA00F0C143BA
:1044800004F10C00BDE8344042E631BD81209FE7D5
:1044900082209DE783209BE7842099E7852097E78A
:1044A000862095E7872093E738B500F01BF8882031
:1044B000FFF7D1FE817B032905D18820FFF7D5FEC8
:1044C00000F0F1F831BD006858B98820FFF7CDFE43
:1044D00000F0E9F80FF6583000F02DF8882000F0D1
:1044E00026F831BDDFF8684A0020E07001257047EA
:1044F00038B5FFF7F7FFFFF7AEFE817B032907D141
:104500000020FFF7B2FE00F0CEF800F0D5FC31BD80
:1045100000680028F9D1FFF7A8FE00F0C4F80FF6F4
:10452000143000F008F8002000F001F831BD8DF8DB
:10453000020000A8084700686168009070470120E9
:104540005FE702205DE703205BE7042059E70520D1
:1045500057E7062055E7072053E710B5DFF8F04985
:104560000020E07082B00820FFF775FE817B0329F0
:1045700010D0006870B90820FFF777FE012101FA1A
:1045800000F000F092F80FF6B420FFF7D4FF0820F7
:10459000FFF7CDFF13BDF8B50FF6A420DFF854598F
:1045A000006800900124DFF8B0090068ADF802004F
:1045B0008820FFF75AFEAE6804FA00F70820FFF7DC
:1045C00054FE04FA00F038433043A86000A869683C
:1045D0008847F1BDDFF8782910B5936801248C4035
:1045E0002343936082B0D46824FA01F35168020631
:1045F00004D5DA070AD40FF64C2203E0DA0705D413
:104600000FF6442212680092FFF791FF13BD10B518
:10461000DFF83C0984782046FFF727FE0146204654
:10462000BDE81040D6E7F8B5DFF83009DFF8C44838
:10463000016821F004010160DFF824090568A16820
:10464000E068A678C94389B241EA00073046FFF71F
:104650000CFE27FA00F1C80744BF3046FFF71FFEE3
:10466000280654BF00208020A07001260020FFF7FC
:10467000FCFD05468020FFF7F8FD06FA05F106FA75
:1046800000F0084300F011F8A5688020FFF7EDFD69
:1046900006FA00F02843A0600FF6B010FFF74BFFBA
:1046A00000A88847F1BD05FA00F0C14304F10C00F1
:1046B0002EE538B5DFF8AC0800F04EF8E005DFF87D
:1046C000345805D5012068700FF6841000F01AF8F0
:1046D000A00505D5002068700FF6781000F012F8DC
:1046E00060050ED5687860B1002068700120DFF8A1
:1046F000781808605820FFF7D9FC0FF65C1000F01E
:1047000001F831BD00686968009000A8084738B515
:10471000DFF8580800F020F8FFF7E5FC88B1DFF873
:104720003008016921F0011201F001111443016107
:1047300007E000F00BF80121A9408C43E9B2FFF734
:1047400049FF002CF5D1BDE8314011E094FAA4F006
:10475000B0FA80F5E8B291E504680460BFF36F8FAA
:10476000BFF34F8FBFF36F8FBFF34F8F704770470B
:104770002DE9FE43DFF87C57E878002840F09E8062
:104780000FE00220B873214605F10C00FFF7C0FCD2
:104790000FF6C8000068696802908DF80A8002A8C8
:1047A0008847E868A968084000F0888090FAA0F07F
:1047B00000F086F88046FFF74EFD07460120B04026
:1047C000C44318F0800611D0BA8979683B6800A804
:1047D0009847002804BF3860B8F1800F18D1DFF87F
:1047E0007C07016841F00401016011E0404600F0DF
:1047F00018FB8146BA897968D7F800C04B4600A8F3
:10480000E047009911B101994945BAD300B9386020
:104810000120E870A86801992040A86008F00F0501
:10482000B8680818B8602A46019800994EB1082D5A
:10483000A8BFDFF83C2708DA14235A43DFF83437DF
:104840000AE0082D04DBDFF830271160506006E035
:1048500014235A43DFF82437D150D1184860FFF7AA
:1048600042FC40B34FF48270FFF726FC4046FFF74E
:104870000CFD022000F06CFC4FF48270FFF722FC6C
:104880000028EFD01E2000E0022000F061FCDFF8DD
:10489000F00600688006F7D5012000F059FC002ED4
:1048A00014BF0FF264700FF2747030F91500FFF747
:1048B00009FC18B9D6E74046FFF7E7FCBDE8F783E7
:1048C000B0FA80F6F0B2D9E42DE9F843DFF8B40687
:1048D000D0F80080474600264FF00109002F11E074
:1048E00097FAA7F0B0FA80F0810001F5807409FA18
:1048F00000F520B2FFF7E6FB18B120B2FFF7DCFBB2
:104900002E43AF43ECD1FFF7EEFB002869D0DFF870
:10491000E405C178002964D1B10262D5DFF86816D8
:1049200040F2A9720A604B68DFB217B14F683B4092
:10493000DBB240F2AA770F60D1F804C05FFA8CF4C2
:1049400024B14C6804EA0C045FFA84FC40F2AB7EAC
:10495000C1F800E04C68E5B215B14D682C40E4B2F6
:1049600040F2AC750D604D682B40DBB22BB1056990
:104970001D4305610A604B604A6840F2AD720A60EF
:104980004A6802EA0C02D2B232B1036943EA024336
:1049900003610F604A604A6840F2AE720A604A687A
:1049A0002240D2B25AB1D307C1F800E048BF46F462
:1049B00000064A60D306496848BF46F0010601690F
:1049C00031F001121CBF08F08072164311F0011F74
:1049D00007D05FEA485204D521F00111016146F485
:1049E0008066F00D00F0010536F400060FF27067E6
:1049F00009E096FAA6F0B0FA80F457F82400804750
:104A000009FA04F08643F4D1FFF7B2FE002D1CBF73
:104A1000BDE8F143FFF707BEBDE8F18370B504467A
:104A2000FFF761FB08B100F083FB200001D10720F4
:104A300070BDDFF81C05017809B1082070BD446025
:104A40000121017000254FF4007445F0800606F046
:104A50000F000828ACBF21464021304600F0DEF8A8
:104A60003046FFF7F8FB00F013F8EEDB002505F009
:104A70000F000828ACBF21464021284600F0CEF8A0
:104A80002846FFF7E8FB00F003F8F0DB002070BDDC
:104A9000002181736D1C0160092D81607047DFF872
:104AA000C4044FF400610160BFF36F8FBFF34F8FF9
:104AB0000123DFF8D8241360BFF36F8FBFF34F8F4C
:104AC00003681B05FCD50160BFF36F8FBFF34F8FE9
:104AD00040F2E371DFF8B004016040214160BFF3B0
:104AE0006F8FBFF34F8F8020D06140F2FF11DFF84E
:104AF000600481600021C160C17081700221017079
:104B0000704780B500F030F8DFF878040168416044
:104B10000020DFF8781400F021F80021DFF83004DD
:104B2000C1700121017001BD10B5DFF8C823DFF8A5
:104B300060440021517010B9FFF7D5FA08B1DFF8D1
:104B40005444DFF8400404600721272000F017FBDD
:104B5000DFF84414012000F001F810BD0860BFF335
:104B60006F8FBFF34F8F704780B52720FFF794FA00
:104B700078B1FFF7F5FBDFF820140020FFF7EEFF18
:104B80008020DFF8181408604FF0FF30DFF81014B1
:104B9000086001BDDFF8B8030078022801DB0120BE
:104BA00070470020704710B582B000F015F8DFF8AC
:104BB0004403407878B1FFF7D3FBDFF8A80301681E
:104BC000890508D4DFF8DC1301220A60006880053B
:104BD0004CBF0C60012414E000248DF8004000A8B4
:104BE00000F072BA10B582B0FFF7F6FFC148407806
:104BF00000281EBFDFF8AC03016800291CBF046059
:104C0000012400F0F1F9204616BDDFF8941301E00D
:104C1000DFF87013DFF890030860704710B50C469A
:104C2000FFF719FB848110BD80B5FFF714FB808965
:104C300002BDFFF74BBAF8B50446FFF775FADFF887
:104C4000441308602046FFF741FA40BB04F00F0010
:104C50000125220605FA00F0204903D50A68104311
:104C6000086002E04A681043486000F039F814F028
:104C70000F0014D0210612D4082810DA00F0BDF974
:104C8000204600F039F9B24EF7682046FFF7EDFAFA
:104C900005FA00F027EA0000F06000F0A5F9F1BD88
:104CA00010B50446FFF7FBFA04F00F00012101FAEA
:104CB00000F0C0432206094903D50A681040086085
:104CC00002E04A681040486000F00AF82046FFF70A
:104CD0002BFAB349086010BD0000000010750240B7
:104CE000BFF36F8FBFF34F8F7047000000E100E00C
:104CF00000700240F8B506460C46FFF7B6FA00F021
:104D00007BF90F2006427B4F04D1B878864218BF4A
:104D1000102433D100F064F820FA05F1C80748BF29
:104D200011242BD43046FFF796FA06F00F010C221F
:104D300012FB0171320611D52368143103F0604370
:104D4000A268B3F1005F04D0D2074CBF974A984ADB
:104D500006E0D2074CBF974A974A01E08031974A54
:104D600002604CCC4CC10C394160002400218160B0
:104D700081730121F868A94000F038F82CE00000A8
:104D8000E00F00F0F8B504460D46FFF76EFA064650
:104D900000F033F90F200442564F04D1B878844212
:104DA00018BF102418D100F01BF820FA06F1C8072C
:104DB00048BF112410D42046FFF74DFA002181602E
:104DC0000024296801606968416000218173012124
:104DD000F868B14000F00AF800F006F92046F2BD8C
:104DE000B968F868C94389B2084370470843F86056
:104DF00080207349086070471A48704738B50C46E0
:104E0000FFF729FA00F0F8F8A86820602868002861
:104E10009DF800000CBFAC7B112400F070F9204617
:104E200032BD00F00F00082805DB66480068C103AA
:104E300004D500207047644951F820007047634949
:104E400016E0624916E000F00F01082907DA0006B3
:104E50004CBF5F485F4850F82100012800D0002077
:104E6000704700001C3900205B490860BFF34F8F7A
:104E700040F480700860BFF36F8FBFF34F8F7047AF
:104E800010B50446082100F09DF9354801682170ED
:104E9000416861708168C26841EA022161800169EC
:104EA000426941EA0221A1808169C06941EA00208A
:104EB000E08010BDD832002010B5FFF714F958B1CA
:104EC000EFF3108472B64C20FFF7F0F84C20FFF798
:104ED000EDF884F3108810BDBDE810404C20FFF7BA
:104EE000E5B85020FFF7E2B85420FFF7DFB81848C4
:104EF00080787047043500202DE9F04182B080466B
:104F0000FFF7F1F808F00F040127114D68B100F028
:104F100074F800F06DF800F061F861001A4801F2D1
:104F2000C5710160002141600DE08DF80000FFF7C0
:104F300056FE00F05DF800F051F80020224941F8DB
:104F40002400FFF7CDFE00F04FF8BDE8F38100002C
:104F5000043500206874024020750240007202404F
:104F60008074024000740240087502406C74024074
:104F7000A076024000760240A0770240007702400F
:104F800074740240047302400078024000750240CD
:104F90000714C0030714E0030475024084E100E035
:104FA000087302402C75024004148001174202006D
:104FB000DF410200B5410200914102005D41020063
:104FC00004E200E0C0740240A07402401875024080
:104FD00020740240447402400C75024007FA00F04D
:104FE00026EA0000A86070479DF8000000F087B82E
:104FF000AE684046FFF739B9054600208DF800003D
:1050000000A800F061B8000008010C0110011401B3
:1050100018011C01200124012C0100003001340181
:1050200038013C014001440148014C01500100009D
:105030000600000006000000060000000600000058
:10504000000000000600000006000001050000004E
:10505000020000000300000004000000060000023F
:105060008F430200B14302005D4402008D44020000
:105070009144020095440200994402009D440200BC
:10508000A1440200A54402000F460200A944020008
:10509000F14402003F45020043450200474502003B
:1050A0004B4502004F4502005345020057450200A0
:1050B0005B45020097450200B34602002746020006
:1050C0000F4702006F47020030B5EFF3108172B650
:1050D000134A936873B90123124C93602568124BED
:1050E0001D4015602360636853604FF0FF326260BB
:1050F000002200E00122027001B962B630BD084909
:105100008A6862B158B9EFF3108072B6074A0B682B
:1051100013604B68536000228A6000B962B6704722
:105120001C3B002080E100E0FC06FFBD00E100E048
:105130000B486FF07F4141600521016070470949CC
:105140000A680B68D31A1B021B0A8342F9D3704703
:105150000549064A0968B1FBF2F14843EFE7000050
:1051600010E000E018E000E02425002040420F009D
:1051700080B500F0F2F8BDE8014000F09BB910B531
:105180004901020006D50B4B00F00F04E31803F8A9
:10519000041C01E0084C01554109012200F01F00E8
:1051A00002FA00F0054A42F82100054A42F82100BF
:1051B00010BD000018ED00E000E400E080E200E037
:1051C00000E100E0002200F0F3B9FEE74FF080417B
:1051D00081B00022425040580090009801B07047C2
:1051E00000F18040006800B10120C0B270478049E2
:1051F000096801F0011140F48030814201D10120A1
:105200007047002070477B49012008607A48006899
:10521000C003FBD4002079498870704780B500F046
:10522000F7F908B140DF01BD754901200860012090
:10523000FFF7DDFF0028FAD17049487001BD38B58D
:105240006E4D2878002408B1852413E0A8606860BA
:105250002861E8606B480068C00703D4072100207C
:10526000FFF78DFF00F0D4F910B9674901200860FD
:1052700001202870204632BD0268134600E01B68FA
:1052800013B18B42FBD170470A600160704780B553
:1052900000F039F85948C168491EC160C06808B9B2
:1052A000FFF7B1FF40E038B5544C0546607830B1A7
:1052B00015B169680020884700F025F818E000F073
:1052C0001DF825B1294604F10800FFF7D5FF6068F5
:1052D00070B900F09DF908B13FDF09E04FF480702C
:1052E000FFF774FF4A49012008604FF080410860D1
:1052F0006068401C606000F01AF831BD8DF8000055
:1053000000A8FFF7E1BE00208DF8000000A8FFF71D
:10531000DBBE80B5FFF7F7FF38484168491E4160A2
:10532000406808B9FFF77AFF00F001F801BD9DF869
:105330000000FFF7E4BE38B50400304814BF00F1A8
:10534000100500F1080504E0086828602046496857
:10535000884729680029F7D131BD38B54FF48070EE
:10536000FFF73EFF254C294D48B14FF48070FFF701
:105370002DFF0120286060700020FFF7DCFF4FF454
:105380008270FFF72DFF50B14FF48270FFF71EFFC0
:10539000022028600120A070BDE83240CBE731BD7B
:1053A000002808BFFFF7C7BF704710B582B020B113
:1053B000012806D0032813D013BD16490120086028
:1053C00013BDFFF7A0FF0D4C207808B9FFF737FF9A
:1053D000E068401CE0600120A070FFF7A8FF13BD4B
:1053E00007210020FFF7CBFEFFF751FF13BD0000A0
:1053F0000C0400400C00004018040040A83A0020B3
:105400000400004000E100E01805004008030040EF
:105410000403004080E100E04FF08042815811B168
:105420000023835001210846704738B5594C054682
:10543000207808B1852032BD00F0EAF808B10820D4
:1054400032BD0DB90FF2641529785348490801F0AF
:1054500001018160297801F0010101604F48006875
:10546000C00703D407210020FFF789FE0120207028
:10547000002032BD10B5044600F010F8206801008D
:105480000AD04749886000F0C3F808B1082010BD71
:1054900044494FF460700860002010BD80B500F0F2
:1054A000B7F818B940494FF46070086000203C49D3
:1054B000886001BD38B53B48394D0468600706D5A2
:1054C0004FF48470FFF7A8FF08B128688047A00652
:1054D00007D54FF48A70FFF79FFF10B1696800206D
:1054E0008847600607D54FF48C70FFF795FF10B121
:1054F000696801208847200607D54FF48E70FFF7B2
:105500008BFF10B1A96800208847E00507D54FF44C
:105510009070FFF781FF10B1A96801208847A005AE
:1055200009D54FF49270FFF777FF20B1A968BDE865
:1055300034400220084731BD012802D118480068D4
:105540000047704710B5012882B0154C02D00328DF
:105550000FD013BD00208DF8000000A8FFF7B4FDA8
:10556000206808B1012035DF9DF80000FFF7C7FD76
:1055700013BD07210020FFF702FE2168094809B189
:1055800004210160A16811B14FF46071016013BD85
:1055900000000000713B00207805004000E100E0C1
:1055A000343B0020040300400803004000000000DA
:1055B000401810F0030308D0C91A1FD3DB0748BFF7
:1055C00000F8012D28BF20F8022D130030B4144636
:1055D0001546103928BF20E93C00FAD8490728BFF2
:1055E00020E90C0048BF40F8042D890028BF20F8AE
:1055F000022D48BF00F8012D30BC7047C91818BFF4
:1056000000F8012DCB0728BF00F8012D7047FEE7F9
:105610000148007870470000193B0020E0B50FF208
:10562000200100A800F023F805E0486809688847D1
:1056300000A800F020F802990029F6D107BDEDE797
:105640003CC002004CC002000800000001E008312C
:105650004160026841685268914202D10021816034
:1056600070470A684B689A42F1D0826070470160C7
:1056700009684160EAE7816851B10268926851188F
:10568000426881605368994202D102F10801F0E753
:105690007047FEE710B550E8004F04EB010240E808
:1056A000002393F0000FF6D1104610BD38B5044624
:1056B0000025DFF8900B00EB8500416808001CBF57
:1056C000204688476D1C042DF3D331BD884205D296
:1056D000006810F1010F01D00120704700207047D1
:1056E000418800EB81000C30704738B504460D4608
:1056F000FFF7F6FF854201D2022032BDA0884FF6A7
:10570000FF7188421CBF2088002801D1012032BDD2
:10571000002032BD68B10168DFF83C2B914208D10E
:105720004068DFF8381B401A04D0401E01D1012028
:10573000704703207047F8B50C460221154600F566
:105740008056218000F108070FE0B868DFF84C1B95
:105750008A6A824238BF886279882088C91C081802
:1057600020803846FFF7BCFF074631463846FFF732
:10577000ADFF68B131463846FFF7B7FF0028E4D0E7
:105780000DB1012129700228E6D14FF480602080FC
:10579000F1BD0289CB1C9A1802814289511AC91E97
:1057A0004181704780B5002000900823DFF8EC0AA3
:1057B0000FF2040281690AE0DEC0ADDEFF011EF1D6
:1057C00080B500210091082301460FF20C02DFF89A
:1057D000D00A00F098FD02BDDEC0ADDEFE011EF174
:1057E00030B5C01C80B240F2FE32904201DB09208D
:1057F00030BD0022DFF8AC3A142404FB02331C78DD
:105800006CB91C895D8924182C19A4B2B4F5806F79
:1058100005DA0A80598940185881002030BD521C91
:1058200092B2022AE6DB072030BDDFF8782A142383
:1058300003FB01214A89101AC01E4881704770B5C8
:105840000C4600F0A8F84168206801F5805518B9A9
:1058500001F1080603E03046FFF742FF06462946FD
:105860003046FFF733FF58B129463046FFF73DFF7A
:1058700018B1022804D0F2D2EDE72660012070BDF5
:10588000002070BDF8B505460C466968DFF80C6A63
:105890000A0027D0DFF8083ADF680846B84224BF7C
:1058A0001B6983421ED311F0030202BF2A89338988
:1058B0009A4202BF2A688B689A4213D100211423AE
:1058C000DFF8F42903FB0122526882423CBF02F553
:1058D0008052904204D3491C89B20229F0DB1BE0BC
:1058E000218011E00020208000200090208800A965
:1058F000FFF7A5FF50B10098296880688842F5D16C
:1059000000986860308928810120F2BD2088401C01
:10591000208080B20228E7DB0020F2BD2DE9F041B3
:10592000DFF89889044698F810000D4616461F4681
:1059300008B902202DE0002E18BF002F05D1052048
:1059400027E03860B888401CB880B88802281FDA81
:1059500000F021F800780028F4D1B8883946FFF724
:105960006EFF0028EDD03868002C1EBF8288238887
:105970009A42F2D1002D1EBF02882B889A42ECD1A8
:10598000816831607060B8F808003081002000E064
:105990000A20BDE8F081DFF82019142202FB001074
:1059A000704710B50146DFF8180900F025FD0446E0
:1059B0001C21FFF707FC204610BD0146DFF8000957
:1059C00000F03CBD2DE9F84F4FF0000900254FF0E5
:1059D000030ACB46C846DFF8C448DFF8E808C068C9
:1059E00000EB0836681C80B200901421DFF8C8086C
:1059F00001FB05073046FFF78DFE20B301282FD0AD
:105A0000032845D1002056F8201011F1010F0CD1C8
:105A1000401CB0F5806FF6D3A06960B102203870E9
:105A20007E6038816580009D0AE07E600320AAF1D7
:105A3000010A387012E0A6610220A0834FF0010B2A
:105A400049F0010924E038707E6007F1100207F187
:105A500008013046FFF76FFE49F00209009D17E08C
:105A6000BBF1000F06D002203870A06978600220D8
:105A70003881009DA661002204F11C013046FFF729
:105A80005AFEA08B02280CBF0420082040EA090916
:105A900008F10108B8F1030F9FDB1FFA8AF0022812
:105AA000B8BF4FF000095FFA89F0BDE8F28F10B57A
:105AB00082B00C4600210091042301460FF6180223
:105AC000DFF8DC0700F01FFC08B10E2016BDDFF880
:105AD000E817142202FB041101200874002016BDEF
:105AE00010B5DFF8B817DFF8BC274888142303FB8C
:105AF0000024DFF8D007E2682AB904220A700023E4
:105B00006168012206E005220A70002302228A83CE
:105B100001228969BDE8104000F024BC80B5DFF89F
:105B20009C074168498803220270C91C0022009228
:105B300009048B0B42688169808B01EB800146E68A
:105B400080B5DFF85807011D4088FFF778FE002870
:105B50001CBFBDE80140FFF7E1BFBDE80140BFE762
:105B6000DFF83807DFF8502703781421072B00D916
:105B7000704730B5DFE803F0042F2F161E2B2B2DB6
:105B800003895B1C038100234380037301FB03240F
:105B900025786C1EA4411D185B1CE40F022BAC720F
:105BA000F4DB16E042685288818BD21C5118818345
:105BB00002210FE04488836901FB04214A68826165
:105BC0004B60828B0A8102218183062102E007213A
:105BD00000E00121017030BD70B50F22DFF8BC4636
:105BE00018B100206061012070BD0879DFF8C85647
:105BF000142628B1022820D007D303282AD03CE05D
:105C000001200871FFF7CEFD22E0002006FB00F125
:105C10004A5D022A06D10020485548194068FFF71E
:105C2000CFFD15E0401C80B20228EFDB012020747C
:105C30000020606141F61D5070BD002008710220F7
:105C4000A0830023A169DFF87C06012200F08AFB13
:105C5000024612E000200871A069FFF7B1FD02467C
:105C60006088A16906FB00504368A3614160A18B75
:105C700001810221A183002101701AB1002060611D
:105C80000E2070BD002070BDF8B50C46DFF8282648
:105C9000A18A142303FB012528B1E1882846FFF7D8
:105CA00078FD0120F2BD68682989DFF8187600EBDD
:105CB0008106A07D062855D8DFE800F0113D1C2E96
:105CC000044851000020106302F12801A069D0624D
:105CD00002F12C00FFF7D6FD08B90A20F2BD022020
:105CE00000F047F8221D3146384600F00CFB88B919
:105CF00000263CE02069002814BF0320012000F0AA
:105D000038F804F10C0206F10801384600F0FBFAFD
:105D10000028EDD00E2626E00120A07506F10C012A
:105D200000200090E08822698300384600F0EBFAFA
:105D30000028EFD1DCE7207803280CBF05200620DF
:105D400000F017F804F10802311DEEE70620A075F7
:105D5000118D106BFFF7ABFE060004D107E041F692
:105D60001D5600E00F26E1882846FFF712FD304659
:105D7000F2BDA075042300200090704738B508B12B
:105D8000012032BDDFF81445207B00281ABF002017
:105D90002073FFF7E5FE22781420521E062ADFF852
:105DA000181536D8DFE802F0041C1F2235252E0016
:105DB000002213199D7A3DB100259D7200FB02134C
:105DC000DD680DB91B7C53B9521C92B2022AF0DB7C
:105DD000002020706080606041F61D5032BD6280FE
:105DE000BDE83140ACE6BDE8314097E6BDE8314062
:105DF00076E606222270628800FB0210BDE832407F
:105E00004068DDE40720207000206060BDE831407C
:105E1000C8E40F2032BD00002DE9F0478AB00446E7
:105E20000FF2B84541F61D56DFF87074F86A07F1B5
:105E3000C00807F1D00920B94946404600F00EFBE2
:105E4000F862D7F82CA09AF80000401E05285ED80A
:105E5000DFE800F00315151A1A5951462046FFF7DE
:105E6000BBFE040000F0A680142100A800F032FB65
:105E7000B44203BF002001900024019449E0514640
:105E80002046FFF701FFECE70CB10124ECE79AF89C
:105E90000400C8B1022815D033D207F1200306AAA6
:105EA00000210AF10600FFF739FD20B9B98C0798E7
:105EB000FFF7FDFD04E007F12001002200230CC1E3
:105EC0000A28CED13046CCE702208AF8040006A882
:105ED0000ECD0EC0DAF80C00069005A906A8FFF753
:105EE000D1FC0C3D58B107988188AAF806100188AA
:105EF000AAF80810BDF81410FFF7D9FDB1E70A2081
:105F0000AFE70F20ADE72046FFF738FFA9E70F24E2
:105F1000AAE7F86A0178491E052933D8DFE801F0BD
:105F20002F261B0F050305202AE004218DF8001001
:105F3000C088ADF80C000020ADF80E0009E0032188
:105F40008DF80010C188ADF80C100189ADF80E1065
:105F5000C068029016E0022100F02FF8C16802919B
:105F6000807D062814BF0020012005E0012100F0FB
:105F700024F8C068029000208DF8100002E0002094
:105F80008DF8000000A8FFF791FB0020F862494659
:105F9000404600F08FFA07F13003012753E8002F45
:105FA000A2EB070143E8001090F0000FF6D10029A2
:105FB0007FF43AAF0AB0BDE8F0878DF80010018990
:105FC000ADF80C108188ADF80E10704710B5DFF8F1
:105FD000F832012453E8002F02EB040143E80010DB
:105FE00090F0000FF6D11AB9BDE81040002013E779
:105FF00010BD406810E72DE9F043DFF8C09283B090
:10600000044699F810000D46984608B9022056E05B
:106010000DB9052053E028884FF6FF7188421ABF5A
:106020006888002804204AD0287910F0030018BF9F
:10603000032044D132B9AE6800A9B0B2FFF7D0FB5B
:1060400020B13CE01088ADF80000568801A8FFF7A9
:10605000A8FC070006D1BDF80010B0B2FFF7E5FBC1
:1060600008202CE087F800800020B8750121BDF8D9
:106070000000B8826868386109F12800FFF70AFB60
:10608000F860B8F1030F288838816888B880FE80EE
:1060900003D10420B8752068B8610020788101A878
:1060A000FFF78BFC44B100206060F868206000209E
:1060B000A072B9F808002081FFF788FF0020BDE832
:1060C000FE8380B55F4A1168042901D10C2002BD0E
:1060D000116802EB8101486001211046FFF7DAFAEE
:1060E000002002BD30B587B001A8142100F0F2F9FC
:1060F0006A4C207CE0BB04F11403012553E8002F17
:1061000042EA050143E8001090F0000FF6D1002AA2
:1061100053D1DFF8B8010168DFF8B40102684068C4
:1061200011F1010F08BF02FB00F15D480161A1F50B
:106130004051C1600022DFF89C1100F0D5F8002822
:106140003CD11C238C2204F1340104F1C00000F086
:106150003FF9FFF737FC050018BF022802D00628D8
:1061600002D009E00B2029E00120207400206061AA
:1061700001A8FFF79BFA20E000F076F808B90820A4
:106180001CE00121012D18BF032D01700AD0052D3F
:1061900018BF072D0BD0092D06D00A2D06D00B2DC8
:1061A00002D005E0002102E0032100E0022101719C
:1061B00000A8FFF702FCFFF709FF002007B030BD81
:1061C00070B504000D4618BF002D82B001D1052026
:1061D00076BD00A9FFF756FB90B1BDF80020364808
:1061E0006668142303FB020001210C30FFF752FA0A
:1061F0002E6060680C3068600120A072002076BDBF
:106200000A2076BD10B5040082B001D1052016BD6C
:1062100000A9FFF737FB98B1BDF8001026481422FB
:1062200002FB0100C16800291CBFA17A002905D02A
:10623000C168491EC1600020A07216BD062016BDAF
:106240000A2016BD803A0020022303E008B9052089
:10625000704703230022CEE6DEC0ADDEFE011EF154
:10626000FFF7B4FE002016BD00A8FFF79ABB10B5DB
:10627000124C82B0207C08B9022016BDFFF7F4FF53
:1062800008B9082016BD0621017000A8FFF795FB8C
:10629000207808B101202073E2E70000F0350020EB
:1062A000E4240020D439002003B581B002A901A85C
:1062B000FFF734FB0EBD0000D4390020F03500207C
:1062C000B0360020E42400202036002014100010F6
:1062D00010000010BCBF02000000FFFF0000000023
:1062E0000000000000000000002818BF002901D1B4
:1062F0000E207047016011460268126810473A4646
:106300002946204651E0F8B50400164618BF002E75
:106310000D461F4601D10E20F2BD206808B90820A5
:10632000F2BD37B160684068B7FBF0F100FB117057
:1063300008B10920F2BD284600F044F830B13046DB
:1063400000F040F810B1FFF7DAFF08B91020F2BDF5
:10635000069800903B4620462468E4683246294669
:10636000A047F2BDF8B504000D4616461F4601D100
:106370000E20F2BD206808B90820F2BD0EB9092030
:10638000F2BD60680068411E0D4204D100FB06F2B8
:10639000FFF7B6FF08B91020F2BD20462468246933
:1063A0003B4632462946A047F2BDC368994207D30F
:1063B00000695118491E88428041C043C00F704790
:1063C0000020704700F00300401E8041C00F70475E
:1063D00010B509B90E2010BD92FBF3F403FB142491
:1063E0000CB1092010BD01608281002141608160F3
:1063F000C381002010BD00003CB550E8015FAAB287
:10640000C3891A4483899A4228BFD21A03899A42BF
:1064100002BFBFF32F8F002407E0C2EA050240E865
:106420000123002BE9D14FF0010400F03AF81AB132
:1064300000680988081836BD002036BD0A884988DA
:106440008A4209D150E8011FC1EA014140E8011226
:10645000002AF7D101207047002070473CB550E872
:10646000025F1FFAA5F2C3889A4202BFBFF32F8FC3
:1064700000240DE0C3891A4483899A4228BFD21AA6
:10648000C5EA024240E80223002BE8D14FF00104A4
:1064900000F007F81AB100684988081836BD0020D6
:1064A00036BD01958DF80040019A0A609DF80020E4
:1064B000704700000A8849888A4209D150E8021FC3
:1064C000C1EA214140E80212002AF7D101207047B9
:1064D00000207047002200F005B8FEE762F30F22AB
:1064E00062F31F4200B500BF130096469446103970
:1064F00028BFA0E80C50FAD85FEA417C28BF0CC046
:1065000048BF40F8042BC90728BF20F8022B48BF1A
:1065100000F8012B00BDFEE7027A914201D3002072
:10652000704701EB410108180930704742789142E9
:1065300001D300207047827810180818704742680D
:1065400012681047DFF8A41649680A0018BF084708
:106550007047F8B5154642680C461E4652683146EB
:106560009047010013D00022002303E05B1C007859
:1065700052FA80F23068824209D250184778A74216
:10658000F5D1DBB29D42F1D101783160F2BD00203E
:10659000F2BDDFF8581600F00F02000601EBC20151
:1065A00002D501F1F400704701F11000704710B5F9
:1065B0000C46FFF7EEFF002C04600EBF002161685F
:1065C0000968416010BDDFF8242601461069526950
:1065D000104770B5DFF8145682B0044605F1E406A2
:1065E00000A93046FFF708FF58B121680160304626
:1065F00000A9FFF723FF2A68014610001CBF2046B0
:10660000904773BDE5E70FF20460E2E758B5044632
:10661000801E02D0C01E032801D8012000E0002007
:10662000DFF8C865317B891E02D0C91E032901D855
:10663000012100E0002188420BD0A01E02D0C01E24
:10664000032804D806F59E70FEF72DFE01E0FEF744
:1066500060FE022C317B16BF082C0120002002298D
:1066600016BF082901210021884208D0022C18BF3A
:10667000082C02D1FEF7CCFA01E0FEF7C6FA34731B
:1066800051BDF8B50546DFF864450423842204F1C2
:10669000600104F1E400FFF79BFE08B10320F2BDA6
:1066A000FEF7CDFDDFF84805FEF7B8F958BB002D21
:1066B00006BF0021002207CD07C40C3C0020207338
:1066C000A065E06500F025F800F01EF80024DFF872
:1066D0002455E1B22846FFF71FFF0646641C56B159
:1066E000002700F057F97F1C0028F2D000782946D7
:1066F000FFF75DFFF5E70FF218500068009000A962
:106700002846FFF71CFFF2BD482104F11000FFF7F7
:10671000E1BE482104F1F400FFF7DCBEFEF7BFB98B
:10672000FEF7EFB9DFF8D0040168890703D40168E8
:10673000C907F9D470470FF2DC404AE780B50FF281
:10674000D84002E080B50FF2D44000F001F801BD5E
:106750000068009000A83CE780B5012000F028FD0B
:1067600020B10FF2BC40FFF7F3FF012002BD38B5A6
:10677000DFF8785404462178287B002968D0012965
:1067800071D0022900F08E80032970D0042977D0BF
:10679000052900F09780062900F098800B2900F069
:1067A0008A80802936D0812906D0822918D0832971
:1067B00038D084293ED031BD0FF2684400F09FF8F4
:1067C00000F09BF80920FFF7BDFEE86D00280CBF24
:1067D000287A0120FEF7A8F900F0F5F901205EE023
:1067E00000F0F1F9FEF7C0F90020FFF70FFF0FF2FC
:1067F000384400F082F800F082F80A20FFF7A2FE89
:10680000287B801E02D0C01E032875D8BDE8314009
:10681000FEF77FBD052841D06ED307283ED06BD24E
:1068200008203CE0032867D1FEF7BDF9002863D0BB
:10683000042034E0032805D1FEF7B5F910B1042097
:10684000FFF7E4FEFEF7CEF9002855D0062026E03B
:106850000020FFF777FEED6D002D4DD000F01DF903
:1068600028684568F8E700F0AEF9022000E005204E
:10687000FFF7CCFE0320FFF765FE00F040F81DE0B7
:106880000320FFF75FFE0FF2A43400F038F800F0A9
:1068900034F8287B062808BF072000D00220BDE876
:1068A0003240B3E60320FFF7B1FE0220FFF74AFEB5
:1068B00000F023F806E00B20FFF744FE2046BDE879
:1068C0003240DEE02046BDE832407CE6A078FFF7AB
:1068D00060FE0246214610685268904700281EBF9D
:1068E000A0780F21084207D000F00F010829BCBF93
:1068F000BDE83240FEF7A3BA31BD2046C1E02046D4
:1069000061E610B582B0DFF8F44200A92046FFF737
:10691000A5FD30B1FFF72BFF00A92046FFF7CAFD08
:10692000012016BDF8B50446002500F028F90646FA
:106930006D1C6EB1002700F02DF87F1C0028F4D0EC
:106940000078FFF726FE00680028F4D01120F2BD81
:10695000002500F014F906466D1C56B1002700F022
:1069600019F87F1C0028F4D000782146FFF71FFE9D
:10697000F5E7DFF88C0200E0086801680029FBD128
:10698000046000A90FF2A820006800902046FFF7DD
:10699000D6FDF2BDF9B23046C8E59A4901E011686A
:1069A000091D0A68002AFAD108600020704795493D
:1069B00001E01168091D0A6842B18242F9D10068FC
:1069C00042680A600021416000207047052070473E
:1069D0008D480178491C02E08B480178491E0170FE
:1069E000002070478848007800B10120704710B53A
:1069F000044604F00F00082805DA2046FEF734FAB2
:106A00002046FEF71EFA2046BDE81040FEF713B9F7
:106A10007648806D70472DE9F04180467348866D59
:106A20000D4601E0306806688EB1377A002400E038
:106A3000641CE4B2BC42F5DA21463046FFF76CFD37
:106A400000784045F4D105B12C70304600E00020BC
:106A5000BDE8F081114672E510B50C46020600F063
:106A60000F0103D5092903DB102010BD0929FBDA2A
:106A7000FFF78FFD00680028F6D02146BDE81040E2
:106A80005DE538B504465948856D03E000F005F82A
:106A900028680568002DF9D131BD214628464EE50C
:106AA00038B552498D6D0446062001E029680D680D
:106AB0001DB1FFF7F2FF0628F8D032BD38B5044605
:106AC0000D46FEF7B6F818B14848007B022801D001
:106AD000082032BD29462046BDE83440FEF70AB9F9
:106AE00038B504460D46FEF7A4F818B13F48007BC0
:106AF000022801D0082032BD29462046BDE8344096
:106B0000FEF740B970B504460D466068836818000A
:106B1000164603D020469847062812D10EB107200A
:106B200070BD294600F02CF80446657805E000F0B9
:106B300009F8761C0078FFF75AFFF6B2AE42F6DB92
:106B4000002070BD31462046F0E470B504460D4685
:106B50006068C26810001CBF20469047294600F0BC
:106B60000FF804460026657805E0FFF7EBFF761C7A
:106B70000078FEF795F8F6B2AE42F6DB70BDE9B2EA
:106B80002046FFF7C9BC10B50246002053681B69B8
:106B90001C0003D0BDE810401046184710BD70B56A
:106BA0001248846D0AE0002229462046FFF7AAFF1A
:106BB0006D1CEDB2B542F6DB2068046814B1267A8C
:106BC0000025F6E770BD70B50848846D09E02946D8
:106BD0002046FFF7BAFF6D1CEDB2B542F7DB206827
:106BE000046814B1267A0025F6E770BD282100203C
:106BF0000566020034BF0200380400400C22002069
:106C000080210020842100206E3B002080000000B5
:106C100007000000810000008200000083000000E7
:106C200084000000090000000A00000003000000CA
:106C300007000000DFF888150A7A824204D0087243
:106C40000FF2B450FFF793BD7047002070472DE955
:106C5000F84F0D46044668689246012618B9206030
:106C60000026606039E0FEF7C7F8FEF7C5F88046F9
:106C7000E86800278245D14602D9814600E0002617
:106C8000B9F1000F26D0A868B8B1CB46814588BFBE
:106C9000834669685A4607EB0800FCF731FCA86890
:106CA000A0EB0B00A860A9EB0B09E868A0EB0B00B8
:106CB000E8605F44686858446860E8680028DED08F
:106CC000A8680028DCD1286850B9686017B157451A
:106CD00038BF0026C4F8008067603046BDE8F28FF8
:106CE0004268526805F108019047686028680068AA
:106CF00000682860C4E710B582B00C4600A800F018
:106D00004FFA0146002008704870DFF8B424087874
:106D100040F001000870527AC2F3400212B140F014
:106D2000020008700222601C00F0F4F916BD2DE983
:106D3000FC410C462079012804D05FD3032851D0B0
:106D400004D35BE012220FF2904153E0B4F80750F5
:106D50000A2D28BF0925FFF75BFE4FF00908002622
:106D600007460AE07A68526800A9384690470098BA
:106D70008044387A861938680768002FF2D100A855
:106D800000F00EFA07462A460FF26041FCF7B8FB06
:106D90003E71A7F80280FFF725FE18B1F87940F0A0
:106DA0002000F871FFF734FEDFF818643060776078
:106DB000B560B4F80700F06000208DF8040001A869
:106DC000FEF782F90FF23C418020FFF789FE0400B4
:106DD00002D100F0D1F904469DF80400FEF78FF9C6
:106DE00020460CE0B4F80510E07800F00FFA01003E
:106DF00004D00A78601C00F08DF900E00620BDE8A0
:106E0000F68138B50C466178C1F34112002A5ED193
:106E1000A278DFF8AC53C9091FD022B1062A06D0E8
:106E2000082A08D053E02146FFF765FF32BD21460E
:106E3000FFF77DFF32BD00A800F0B2F90146287AC5
:106E4000052808BF012002D0042840D10020087086
:106E50000122601C00F05EF932BD287A697A012AAD
:106E600016D0032A0DD0052A02D0092A18D02EE008
:106E700003281CBF0428052816D1FFF7A4FE042010
:106E80001FE0B4F80300012821D141F0020005E021
:106E9000B4F8030001281AD101F0FD00687212E075
:106EA000052818BF042801D0082032BDE07818B9A1
:106EB000FFF789FE042004E0012806D1FFF76FFEEA
:106EC0000520FFF7B7FE002032BD072032BD0620A7
:106ED00032BDF0B585B0064605208DF800000624C9
:106EE0000DF10100FDF7CCFF9DF80100B44D10F04D
:106EF0001F0005D002285AD00AD3032807D09CE0EF
:106F000000A93046FFF77DFF0446062CF7D190E03C
:106F10009DF8050004A9FFF77EFD060005D11024A9
:106F2000FDF7E2FF204605B0F0BD9DF8101000AA65
:106F3000FFF790FD0446062C0ED19DF801009DF848
:106F40001070C0F341110029EAD1297A9DF802207E
:106F5000C00919D072B10A2A6FD1052918D103A826
:106F600000F01EF9044639463046FFF70CFE20704B
:106F7000012258E005290BD103A800F011F90021E6
:106F80000180022201464FE00B2AC9D1052901D018
:106F90000824C5E7BDF80300FF28C8BF0724BFDCED
:106FA0009DF8032039463046FFF7ACFD44E09DF8DC
:106FB00005000F21084205D000A9FFF74DFD04464A
:106FC000062C3AD19DF80100C0F341100028A7D14A
:106FD0009DF80560BDF803109DF8022006F00F0033
:106FE000C2B1012A02D0032A0BD026E0082897DA82
:106FF000002995D13046FDF737FF3046FDF721FFD8
:1070000006E008288CDA00298AD13046FDF717FF00
:10701000002414E003A800F0C3F804463046FDF74E
:1070200012FF2080022221460DF1010000F072F8CB
:1070300002E000A8FFF734FD0446002CE4D12868E4
:1070400010B9FDF74EFF6DE7FDF736FF6AE7000068
:1070500070B50C4606252178594E491E092954D889
:10706000DFE801F0052D09531E2F2D22242A0320CD
:10707000FFF7E0FD49E006F10C03002453E8002F80
:1070800002EA040143E8001090F0000FF6D1B2B11B
:107090004D4901200860BFF36F8FBFF34F8F0EE0A3
:1070A000FFF717FF054630E0002006E0474800687C
:1070B000C00748BF022000D40120FFF7BBFD002518
:1070C00023E0326810001DD0002030607168E07845
:1070D0009047050017D13068C8B9A078A8B93C48D6
:1070E0000178082904BF017911F00F0F07D1017A47
:1070F00011F0F00F04BF007B10F0F00F05D0FDF78A
:10710000F0FE02E00E25FDF7EFFE284670BDFDF70C
:10711000D3FEFAE77FB5C0881646B0420D461DD2B1
:1071200004460020010018BF012100208DF8000056
:1071300003910195029400A8FDF7C6FF01A98020E4
:10714000FFF7BCFC040002D100F016F804469DF8DD
:107150000000FDF7D4FF204604B070BD86423446DF
:10716000DFD28020FDF760FDB6FBF0F100FB11607F
:10717000401E8041C00FD5E70FF280018020FFE75D
:1071800038B504460D46FDF7B2FEA04201D01020EE
:1071900032BDD5E900010A4AC2E90001002032BD32
:1071A00008B1402101600B4870470548007A7047DC
:1071B0000349497A21FA00F202F001007047000009
:1071C000CC3A0020DC3A00205C70024038040040D9
:1071D000E00F00F09C380020120100020000004087
:1071E00015190E52000101020301000009020000FE
:1071F000000100C0FA0000000B0000004B6C020010
:10720000000000004F6C0200DC3A002010B90FF2C1
:1072100020007047052801D3002070470FF21401A9
:10722000405C10B1014951F820007047D024002083
:1072300004030900000102030400000030B5DFF878
:10724000A405DFF8A415837D042B024619D0072B73
:1072500008BF012309D0437802781B0243EA0242A7
:1072600083781A438A600223C21C557814782D0251
:1072700045EA044495782C439B014C60D21C43F0B2
:107280000403557814782D0445EA04649578D2787F
:1072900044EA052422430A600B610021C175417450
:1072A00081748162C16230BD38B5DFF83845206233
:1072B0006162A07D18B90720A07500F05EF8DFF8C4
:1072C0002C05DFF82C15DFF82C5501660121A96784
:1072D0003F210160002101610621DFF81C050160EA
:1072E00008210160DFF814150160FFF7A7FFDFF840
:1072F0001015DFF81005086004202074207D40017F
:1073000000F06000286000206074A074A062E06259
:107310000FF21D00E0610020A061FDF790FF002842
:1073200018BF852801D1002032BD032032BD0000E6
:1073300018B9DFF8D414012008607047DFF8A414EE
:10734000F2220A7348B1087B40F008000873487DB8
:10735000487310208873182001E01020487301F151
:107360000C03DFF8A8245360106102201060012094
:10737000DFF89C241060C874704710B5DFF89404DF
:10738000DFF860340168426880681970D8710C0AAF
:10739000090C99705C70110A1971DA70110C59712D
:1073A000110E9971010A000C1972587210BD80B546
:1073B0000346012BDFF82C0415D109780174012A4A
:1073C00027D1017C052915D2027CDFF83414042A68
:1073D00008BFDFF8300416D090F91000012202FA3D
:1073E00000F000030FE0022B0FD10978012A10D121
:1073F000042901D3072002BD0175007DDFF8F413D5
:10740000400100F0600008601AE0042B09D1022A54
:1074100001D30C2002BD012A0CBF0978002141755F
:107420000EE0032B0CD1012A0CD1097804291CBFD2
:1074300007290A290FD18175FFF79FFFFFF7FEFE8D
:10744000002002BD042A1CBF072A0A2A03D1827524
:10745000FCF756F8F2E7092002BDDFF8BC13012063
:107460000860DFF8B81308602020DFF8B413086064
:10747000E020DFF8B01308702020DFF8AC1328E01C
:1074800081B009B90C2022E0DFF85823537C23B1E6
:107490009062D1620120907418E0D374DFF88C23DD
:1074A00013601268DFF850330092009A10221A60BD
:1074B000DFF85823506040F6F87000EAC100106110
:1074C000032010600120DFF848130860002001B09D
:1074D00070470860002070472DE9FE4FD44DD54C11
:1074E0002968002039B12168890704D528602868F7
:1074F000009000980220DFF840B36968DFF8189325
:10750000DFF80883B74FDFF814A30BF5807661B17D
:107510002168490709D50021696000286968009140
:1075200014BF03200120009901E0002839D08DF814
:1075300008009DF80800032808D1D9F838007168C0
:10754000084214BF022001208DF808009DF80800B1
:10755000012802D002281CD023E0CAF80800CAF88B
:107560000000FDF7D6FE002070704FF48860A06028
:10757000012000F065F904D00146786A002300225A
:10758000E04700F027F90020F8750320C8F8000054
:1075900007E0707818B907F11800FDF784FE0120A4
:1075A00070706869002826D02068400623D5D8F876
:1075B0001810C1F3C801891E002001916861696932
:1075C00000910099696A61B12168490509D5D9F826
:1075D000080000216962696A009100990D21C9F8CB
:1075E000081010F00D0FF87D0AD028B90120CAF854
:1075F0001C004020A06074E00120CAF8140070E074
:1076000000289BF8000016D1E02808D18B488B4950
:10761000006840F0010008600120F87557E09BF811
:107620000000502807BF012030700120CAF81C005C
:107630004020A0604BE0C008797D10F001001EBF23
:107640009BF8012002F00F0291423DD19BF80010FF
:1076500001F0F701C22902D10120B07037E0797C36
:1076600039B39BF8001001F0F701F22921D1002174
:107670007974B97CD1B10020B874E86040F6F87133
:10768000E8680090009810206060B86AC8F80400AC
:10769000F86A01EAC000C8F810000320C8F800002A
:1076A0000120CAF804000020F87410E0FFF746FE3D
:1076B0000DE09BF8001001F0E601022904D1FFF76C
:1076C0003DFE1020606002E00120CAF8140000F0C6
:1076D000B8F804D0019B786A5A460221E04700F0CE
:1076E000C1F8CDF804B04FF4807BE86800B320689F
:1076F000C0061DD50020E860E868009000981020C2
:10770000A060B07850B100F065F80120CAF8200000
:107710004020A0600020B070F87501E000F096F8FD
:1077200000F08FF804D0786A002300220321E0479C
:10773000A86C40B32068000325D50020A864A86C7D
:10774000009000980020686168690090009800200F
:107750006862686A0090009800F078F80D20C9F817
:1077600008000120C9F80000022000F069F804D0E8
:107770000022786A00231146E0470020F8757874EB
:10778000B874B862F862A869A8B12068000612D57A
:10779000D9F800000021A961C007A96900910099EA
:1077A00006D5307820B10120C9F8000000203070E3
:1077B0000120C9F80000A86850B12068000707D56B
:1077C00000F050F8F87C18B10020F87401207874AB
:1077D000BDE8F78F19481949006840084000086063
:1077E0007047000070240020905500402C56004047
:1077F00048810300A4550040045300408000080065
:1078000008550040FFFF0F00005000400C5500409D
:107810000C50004050040010045400400850004038
:1078200080E200E005E400E000E100E010510040EB
:1078300004510040005300406C2200209C55004041
:107840007060D7F820C0BCF1000F70470198C8F8ED
:107850000400C8F808B00120CAF814004FF488608A
:10786000606070470020A860A8680090009870478A
:10787000DFF884150858012818BF0020704700F170
:10788000804000F5C040002181B001600068009098
:10789000009801B0704741EA420141EA830210B505
:1078A0000299202842EA012232BF4FF0A04400F0A2
:1078B0001F00DFF84845039904EB800042EA0141CC
:1078C000C0F8001710BD202832BFDFF8342500F0C3
:1078D0001F00DFF8302552F8203023F4403342F8FF
:1078E000203052F8203043EA014123E1202832BF02
:1078F000DFF8141500F01F00DFF8101507E020284E
:1079000032BFDFF80C1500F01F00DFF80815012268
:1079100002FA00F008607047202832BFDFF8F81440
:1079200000F01F00DFF8F414096821FA00F202F0F9
:10793000010070477CB50FF2FC4460CC00AB60C323
:10794000034607E000AC54F82340D4F8104542F851
:10795000044B5B1C0C18A342F4D373BD012200F04E
:107960000703C0089A40405C10407047DFF8B0142D
:10797000401890F9300008288041C00F7047DFF8A8
:10798000A014401890F93000082801DB012070474E
:1079900000207047DFF88814401890F93000C04389
:1079A000C00F7047F0B5002A4FF0FF3307BF08241F
:1079B0000C2500240825DFF8686400E0641CAC4254
:1079C0000DD256F824709F42F8D1831983F83040C5
:1079D00046F8241012B9A11981F85800234658B26C
:1079E000F0BDDFF83C144FF0FF3241F820200828AA
:1079F000A4BF401880F85820704738B5DFF82044FD
:107A000094F8640008B1082032BDFF22302104F14F
:107A10003000FEF763FD00252846FFF7E2FF6D1CEE
:107A20000C2DF9DB07210620FDF7A9FB4FF4BE70F2
:107A3000FFF725FFDFF8EC134FF00040086001204E
:107A400084F86400002032BDF0B50546DFF8D003AD
:107A500028180E4690F93010002411F1010F83B060
:107A600018BF08243FD1B17851B96FF0010180F8F7
:107A700030107078012828462BD1FFF737FF2AE015
:107A8000012200212846FFF78DFF10F1010F1ED0C3
:107A900071783778DFF89023DFF890C352F8203000
:107AA0000CEA030342F820304FEA052C3F040CF4A3
:107AB0007C5C07F44037090552F8203047EA0C0790
:107AC00001F480113943194342F82010D1E704240E
:107AD00009E0FFF714FF01220194009400231146EE
