:02000004000FEB
:10300000203400206D370F0097350F00FB350F007F
:10301000E9360F002B370F0037370F000000000094
:1030200000000000000000000000000091370F00C9
:1030300093370F000000000095370F0097370F00FF
:1030400099370F009B370F009D370F009F370F00F8
:10305000A1370F00A3370F00A5370F00A7370F00C8
:10306000A9370F00AB370F00AD370F00AF370F0098
:10307000B1370F00B3370F00B5370F00B7370F0068
:10308000B9370F00BB370F00BD370F00BF370F0038
:10309000C1370F00C3370F004F360F00C5370F0081
:1030A000C7370F00C9370F00CB370F00CD370F00E0
:1030B000CF370F00D1370F000000000000000000E4
:1030C000D3370F00D5370F00D7370F00D9370F0090
:1030D000DB370F00DD370F00DF370F00E1370F0060
:1030E000E3370F00E5370F00E7370F00000000005F
:1030F00000000000E9370F0000000000EB370F0070
:1031000000000000000000000000000000000000BF
:1031100000000000000000000000000000000000AF
:10312000000000000000000000000000000000009F
:10313000000000000000000000000000000000008F
:10314000000000000000000000000000000000007F
:10315000000000000000000000000000000000006F
:10316000000000000000000000000000000000005F
:10317000000000000000000000000000000000004F
:10318000000000000000000000000000000000003F
:10319000000000000000000000000000000000002F
:1031A000000000000000000000000000000000001F
:1031B000000000000000000000000000000000000F
:1031C00000000000000000000000000000000000FF
:1031D00000000000000000000000000000000000EF
:1031E00000000000000000000000000000000000DF
:1031F00000000000000000000000000000000000CF
:1032000010B555480168082904BF4168002906D156
:10321000524900220A604A600021514A1160016847
:10322000082904BF4168002923D14E4A4E4913683A
:103230000B6053684B6093688B60D368CB601369F5
:103240000B6153694B6193690B62D3694B62136ADB
:103250008B62536ACB62936A0B63D36A4B63136BC3
:103260000B64536B4B64936B8B64D36BCB64126CAA
:103270000A650168082904BF4168002902D13B4A58
:103280003B4911600168082904BF4168002902D147
:10329000384AFB2111600168082904BF41680029F0
:1032A00009D13549354B0A681B78120903F00F0321
:1032B00043EA02120A600168082904BF4168002934
:1032C00003D12F4A4FF4007111600168082904BF2F
:1032D0004068002806D12B480168C90744BF6FF039
:1032E000010101602848C16F41F47001C167BFF35B
:1032F0004F8FBFF36F8F25490A68002A5CBF4A6869
:10330000002A21D5224A01231360224B1C68002C7D
:10331000FCD012240C601C68002CFCD012244C60E1
:1033200019680029FCD00021116019680029FCD01F
:10333000BFF34F8F0168184A01F4E0611143016047
:10334000BFF34F8F00BFFDE701490248086010BD81
:10335000142C00200090D003300100100C0100401C
:10336000380500400404001020C500408C56004081
:103370004881030018F50040E40E00405802001098
:1033800040960240000400400CED00E000120010E6
:1033900004E5014000E401400400FA05202832BFA2
:1033A0004FF0A04100F01F003B4901F204510123FE
:1033B0000A6803FA00F020EA02034B6010408860BC
:1033C000704700004FF47A7148433ED03349344A85
:1033D000096800BF00BF00BF00BF00BF00BF00BF43
:1033E00000BF91422FD000BF00BF00BF00BF00BF91
:1033F00000BF00BF00BF00BF00BF00BF00BF00BFD5
:1034000000BF00BF00BF00BF00BF00BF00BF00BFC4
:1034100000BF00BF00BF00BF00BF00BF00BF00BFB4
:1034200000BF00BF00BF00BF00BF00BF00BF00BFA4
:1034300000BF00BF00BF00BF00BF00BF00BF00BF94
:1034400000BF00BF00BF401EC3D17047154810B574
:10345000006843F20804B1281CBF206800F02AF875
:1034600011490320086000F023F800F01FF800F075
:103470001FF800F01BF800F01BF800F017F800F040
:1034800017F800F013F800F013F800F00FF82068B8
:1034900000F010F8002010BD00030050142C002094
:1034A0000024F4001C0500402C0A00502B2075E776
:1034B000FA2087E710B5044600F014F868B9074908
:1034C0004FF0FF30086006490860204613DF20B93E
:1034D0002046BDE8104000F019B810BD80E100E0C2
:1034E00080E200E01FB50FF214000FC800AC84E8C2
:1034F0000F0000A818DF04B010BD0000020000009B
:10350000000000000000000000000000F0B50146CF
:103510000D6885F3088848680024E443EFF30585C7
:10352000002D07D1EFF314810222914381F3148817
:10353000A64600472546064621273FBAF0B4002498
:10354000002500260027F0B40620C0430047F0BD48
:1035500001E008314160026841685268914202D13D
:103560000021816070470A684B689A42F1D08260FE
:103570007047016009684160EAE7816851B10268FB
:1035800092685118426881605368994202D102F1F1
:103590000801F0E77047FEE71FB50FF2340400A8FA
:1035A00048DF20B1052818BF00F018F81FBD2146DC
:1035B00001A8FFF7DEFF06E0516800981268904707
:1035C00001A8FFF7DAFF039A002AF5D1E7E7000028
:1035D0005C370F006C370F000800000010B584B096
:1035E00000A90022002314461CC1029000AA19461B
:1035F00044F2010000F002F81FBDFEE70848006831
:10360000C00700D500BEBFF34F8F0648064A0168C9
:1036100001F4E06111430160BFF34F8F00BFFDE78C
:10362000F0ED00E00CED00E00400FA05E0B50FF26B
:10363000200100A8FFF79DFF05E04868096888475A
:1036400000A8FFF79AFF02990029F6D107BDEDE720
:103650004C370F005C370F000800000010B450F822
:10366000041B79B10268436812180830DC0744BFB4
:10367000A9F10104E31852F8044B43F8044B091F65
:10368000F9D1ECE710BC704710B5074979441831FF
:10369000064C7C44163404E00A68081D511888471B
:1036A0000146A142F8D110BD2C0000003C000000F2
:1036B0004EF68851CEF20001086840F470000860B0
:1036C000BFF34F8FBFF36F8F4FF00070E1EE100A22
:1036D0007047000089FFFFFF1C0000001001000080
:1036E000002C002000000000FEE7000005490A68E9
:1036F00012B10A68521E0A600169002918BF084702
:1037000070470000182C002000F00BF8002801D0B2
:10371000FFF7BAFF0020C046C046FFF797FE00F053
:1037200002F80120704700F001B8FEE7074638466E
:1037300000F002F8FBE7FEE780B5C046C046024A4B
:1037400011001820ABBEFBE72600020088370F00EF
:1037500090370F0000000000000000000000000093
:103760000000000000000000000000000148804749
:103770000148004701320F007D370F00C046C046A8
:10378000FFF796FFFFF7C0FF99350F00000000001C
:10379000FEE7FEE7FEE7FEE7FEE7FEE7FEE7FEE701
:1037A000FEE7FEE7FEE7FEE7FEE7FEE7FEE7FEE7F1
:1037B000FEE7FEE7FEE7FEE7FEE7FEE7FEE7FEE7E1
:1037C000FEE7FEE7FEE7FEE7FEE7FEE7FEE7FEE7D1
:1037D000FEE7FEE7FEE7FEE7FEE7FEE7FEE7FEE7C1
:1037E000FEE7FEE7FEE7FEE7FEE7FEE7000000007B
:1037F00000000000ED360F00001000000000100077
:083800000090D003000000005D
:020000041000EA
:0810140000300F0000E00F00A6
:04000005000F377D34
:00000001FF
