:02000004000FEB
:10300000D047002049900F00BF420F00C3430F007C
:10301000AB470F00F3490F00134A0F0000000000F8
:1030200000000000000000000000000077510F00C9
:10303000E3590F0000000000F75F0F00C7700F009A
:1030400069430F007B820F004D670F00378B0F0025
:10305000558F0F00CF8F0F00536B0F00DB8F0F00CA
:1030600089780F0091780F0099780F00D5900F00A4
:10307000D7900F00D9900F00DB900F00DD900F006C
:10308000DF900F00E1900F00E3900F00E5900F003C
:10309000E7900F00E9900F0083490F00EB900F00BD
:1030A000ED900F00EF900F00A1780F00A9780F00AE
:1030B000F1900F00F3900F000000000000000000EE
:1030C000F5900F00F7900F00F9900F00FB900F00A4
:1030D000FD900F00FF900F0001910F00313A0F009B
:1030E00003910F0005910F0007910F0000000000F1
:1030F0000000000009910F00000000000B910F007C
:1031000000000000000000000000000000000000BF
:1031100000000000000000000000000000000000AF
:10312000000000000000000000000000000000009F
:10313000000000000000000000000000000000008F
:10314000000000000000000000000000000000007F
:10315000000000000000000000000000000000006F
:10316000000000000000000000000000000000005F
:10317000000000000000000000000000000000004F
:10318000000000000000000000000000000000003F
:10319000000000000000000000000000000000002F
:1031A000000000000000000000000000000000001F
:1031B000000000000000000000000000000000000F
:1031C00000000000000000000000000000000000FF
:1031D00000000000000000000000000000000000EF
:1031E00000000000000000000000000000000000DF
:1031F00000000000000000000000000000000000CF
:10320000DFF8681C420951F8221000F01F0021FA73
:1032100000F219E0DFF8582C0121815000F0EBBEDC
:10322000DFF84C2C0021815000F0E5BEDFF8401C97
:1032300040586FE000F00F01DFF8202C00064CBF73
:103240001068506820FA01F202F001007047DFF8C0
:10325000B00C0178082901BF017911F00F0F017A34
:1032600011F0F00F06D1007B00F0F000401E80410D
:10327000C00F70470020704710B550E8004F04EAB7
:10328000010240E8002393F0000FF6D1104610BD74
:10329000010600F00F004CBF0FF210010FF21801F1
:1032A0000122405C02FA00F07047000002030405AE
:1032B000060708090B0000000C0D0E0F1011121369
:1032C0001400000030B54C689C4204D200254560D3
:1032D0000968016007E04360E41A0D6805604C600E
:1032E0000868181808609A4203D1200002D0012013
:1032F00000E00020C0B230BD4B689A4288BF1A4639
:103300000B68036042604868801A486008681018BB
:103310000860486800B10120C0B270474B689A420B
:1033200088BF1A46002A0CBF00230B680360426066
:103330004868801A4860086810180860100018BFB4
:103340000120C0B27047F8B50C4605466068DFF84A
:10335000947C21681646864288BF06463246384627
:1033600000F072FF2F606E606068801B60602068F4
:1033700030182060606800B10120C0B2F2BDF8B51D
:103380000C46064660681546854288BF054645B12D
:10339000DFF8507C21682A46384600F055FF376038
:1033A00001E00020306075606068401B606020684C
:1033B00028182060280018BF0120C0B2F2BDDFF835
:1033C000741C020648BF903100F00F0001EB0010A2
:1033D000704701064CBF0021102100F00F0040187B
:1033E000C0B270471028ACBF103840F08000C0B2A7
:1033F000704701064CBF0421282100F00F0001EBAB
:103400008000C0B206E72DE9F04383B0804600207B
:103410008DF804004FF0010901A800F051FF40466B
:10342000FFF7CDFF05465FEA0860DFF8487C4046BD
:103430001AD4FFF7CEFFFE68F14321FA00F2D0075D
:1034400003D5404600F018FE0BE00020286000F095
:1034500090FE00F031F8B96809FA00F021EA0000A6
:10346000B8600320A8731EE0FFF7B3FFBC68FE68D6
:1034700066EA040121FA00F2D00714D500F079FEC3
:1034800000F01AF809FA00F02043B8600020286024
:103490000320A8730FF21C000068796800908DF873
:1034A000028000A888479DF8040000F024FFBDE8D2
:1034B000F78300000600000309FA00F026EA000086
:1034C000F860404685E79EE770B5DFF8044CA168D8
:1034D000E068090C50EA014508E095FAA5F000F013
:1034E000A3FAFFF790FF0120B0408543F5D140F2E9
:1034F000FF10A06070BD80B5DFF8D41B00204870BD
:1035000088700FF2100000684968009000A8884792
:1035100001BD00000100000038B5DFF8B80B0468F9
:10352000046000F09DFC002C04E000F0C3F90120D1
:10353000A8408443F9D131BD70B500F03DF80126B3
:103540002846FFF73CFF817B03291CBF0068002849
:103550000AD12846FFF73DFF06FA00F0C14304F107
:103560000C00BDE8704087E670BD70B500F024F82F
:1035700082B02846FFF723FF0126817B032907D16C
:103580002846FFF726FF06FA00F000F042F910E0A7
:10359000006870B92846FFF71CFF06FA00F000F03B
:1035A00038F90FF6144000F07AF88DF8025000A8B0
:1035B000884700F091F973BD0546DFF8144B0020F1
:1035C000E070704738B500F041F88020FFF7F7FE53
:1035D000817B03291CBF006800280AD18020FFF7E7
:1035E000F8FE05FA00F0C14304F10C00BDE83440D8
:1035F00042E631BD81209FE782209DE783209BE743
:10360000842099E7852097E7862095E7872093E730
:1036100038B500F01BF88820FFF7D1FE817B032925
:1036200005D18820FFF7D5FE00F0F1F831BD006824
:1036300058B98820FFF7CDFE00F0E9F80FF670309A
:1036400000F02DF8882000F026F831BDDFF8804A20
:103650000020E0700125704738B5FFF7F7FFFFF74E
:10366000AEFE817B032907D10020FFF7B2FE00F0F8
:10367000CEF800F0E1FC31BD00680028F9D1FFF779
:10368000A8FE00F0C4F80FF62C3000F008F8002077
:1036900000F001F831BD8DF8020000A8084700686D
:1036A00061680090704701205FE702205DE703201A
:1036B0005BE7042059E7052057E7062055E7072078
:1036C00053E710B5DFF8084A0020E07082B0082008
:1036D000FFF775FE817B032910D0006870B90820C0
:1036E000FFF777FE012101FA00F000F092F80FF6E3
:1036F000CC20FFF7D4FF0820FFF7CDFF13BDF8B5AE
:103700000FF6BC20DFF86C59006800900124DFF848
:10371000C8090068ADF802008820FFF75AFEAE68BD
:1037200004FA00F70820FFF754FE04FA00F03843CB
:103730003043A86000A869688847F1BDDFF8902988
:1037400010B5936801248C402343936082B0D46801
:1037500024FA01F35168020604D5DA070AD40FF6F9
:10376000642203E0DA0705D40FF65C2212680092A7
:10377000FFF791FF13BD10B5DFF854098478204698
:10378000FFF727FE01462046BDE81040D6E7F8B512
:10379000DFF84809DFF8DC48016821F00401016026
:1037A000DFF83C090568A168E068A678C94389B2DA
:1037B00041EA00073046FFF70CFE27FA00F1C80780
:1037C00044BF3046FFF71FFE280654BF002080206C
:1037D000A07001260020FFF7FCFD05468020FFF7C2
:1037E000F8FD06FA05F106FA00F0084300F011F8BA
:1037F000A5688020FFF7EDFD06FA00F02843A060E1
:103800000FF6C810FFF74BFF00A88847F1BD05FA77
:1038100000F0C14304F10C002EE538B5DFF8C40810
:1038200000F04EF8E005DFF84C5805D5012068702F
:103830000FF69C1000F01AF8A00505D5002068705E
:103840000FF6901000F012F860050ED5687860B1A0
:10385000002068700120DFF8901808605820FFF7FA
:10386000D9FC0FF6741000F001F831BD00686968EA
:10387000009000A8084738B5DFF8700800F020F87D
:10388000FFF7E5FC88B1DFF84808016921F0011273
:1038900001F001111443016107E000F00BF8012170
:1038A000A9408C43E9B2FFF749FF002CF5D1BDE8F0
:1038B000314011E094FAA4F0B0FA80F5E8B291E555
:1038C00004680460BFF36F8FBFF34F8FBFF36F8F38
:1038D000BFF34F8F704770472DE9FE43DFF89457D1
:1038E000E878002840F09E800FE00220B87321465F
:1038F00005F10C00FFF7C0FC0FF6E00000686968F6
:1039000002908DF80A8002A88847E868A9680840F4
:1039100000F0888090FAA0F000F086F88046FFF76B
:103920004EFD07460120B040C44318F0800611D078
:10393000BA8979683B6800A89847002804BF3860B6
:10394000B8F1800F18D1DFF89407016841F0040145
:10395000016011E0404600F024FB8146BA89796895
:10396000D7F800C04B4600A8E047009911B1019973
:103970004945BAD300B938600120E870A8680199B8
:103980002040A86008F00F05B8680818B8602A46FB
:10399000019800994EB1082DA8BFDFF8542708DA26
:1039A00014235A43DFF84C370AE0082D04DBDFF814
:1039B00048271160506006E014235A43DFF83C3773
:1039C000D150D1184860FFF742FC40B34FF48270E9
:1039D000FFF726FC4046FFF70CFD022000F0B4FC88
:1039E0004FF48270FFF722FC0028EFD01E2000E089
:1039F000022000F0A9FCDFF8080700688006F7D570
:103A0000012000F0A1FC002E14BF0FF27C700FF219
:103A10008C7030F91500FFF709FC18B9D6E740465D
:103A2000FFF7E7FCBDE8F783B0FA80F6F0B2D9E41F
:103A30002DE9F843DFF8CC06D0F800804746002691
:103A40004FF00109002F11E097FAA7F0B0FA80F0CB
:103A5000810001F5807409FA00F520B2FFF7E6FB5A
:103A600018B120B2FFF7DCFB2E43AF43ECD1FFF7D8
:103A7000EEFB002869D0DFF8FC05C178002964D18D
:103A8000B10262D5DFF8801640F2A9720A604B6875
:103A9000DFB217B14F683B40DBB240F2AA770F604C
:103AA000D1F804C05FFA8CF424B14C6804EA0C0429
:103AB0005FFA84FC40F2AB7EC1F800E04C68E5B2EE
:103AC00015B14D682C40E4B240F2AC750D604D6804
:103AD0002B40DBB22BB105691D4305610A604B60C9
:103AE0004A6840F2AD720A604A6802EA0C02D2B239
:103AF00032B1036943EA024303610F604A604A68D6
:103B000040F2AE720A604A682240D2B25AB1D3077C
:103B1000C1F800E048BF46F400064A60D306496891
:103B200048BF46F00106016931F001121CBF08F0E0
:103B30008072164311F0011F07D05FEA485204D586
:103B400021F00111016146F48066F00D00F00105DD
:103B500036F400060FF2886709E096FAA6F0B0FA8C
:103B600080F457F82400804709FA04F08643F4D122
:103B7000FFF7B2FE002D1CBFBDE8F143FFF707BE03
:103B8000BDE8F18370B50446FFF761FB08B100F0B2
:103B9000CBFB200001D1072070BDDFF83405017890
:103BA00009B1082070BD44600121017000254FF467
:103BB000007445F0800606F00F000828ACBF2146CF
:103BC0004021304600F0EAF83046FFF7F8FB00F0FD
:103BD00013F8EEDB002505F00F000828ACBF2146E6
:103BE0004021284600F0DAF82846FFF7E8FB00F00D
:103BF00003F8F0DB002070BD002181736D1C0160B3
:103C0000092D81607047DFF8C8040178012901D0CF
:103C10000820704700214160017000207047DFF8E4
:103C2000C4044FF400610160BFF36F8FBFF34F8F87
:103C30000123DFF8D8241360BFF36F8FBFF34F8FDA
:103C400003681B05FCD50160BFF36F8FBFF34F8F77
:103C500040F2E371DFF8B004016040214160BFF33E
:103C60006F8FBFF34F8F8020D06140F2FF11DFF8DC
:103C7000600481600021C160C17081700221017007
:103C8000704780B500F030F8DFF8780401684160D3
:103C90000020DFF8781400F021F80021DFF830046C
:103CA000C1700121017001BD10B5DFF8C823DFF834
:103CB00060440021517010B9FFF7C9FA08B1DFF86C
:103CC0005444DFF8400404600321272000F053FB34
:103CD000DFF84414012000F001F810BD0860BFF3C4
:103CE0006F8FBFF34F8F704780B52720FFF788FA9B
:103CF00078B1FFF7E9FBDFF820140020FFF7EEFFB3
:103D00008020DFF8181408604FF0FF30DFF810143F
:103D1000086001BDDFF8B8030078022801DB01204C
:103D200070470020704710B582B000F015F8DFF83A
:103D30004403407878B1FFF7C7FBDFF8A8030168B8
:103D4000890508D4DFF8DC1301220A6000688005C9
:103D50004CBF0C60012414E000248DF8004000A842
:103D600000F0AEBA10B582B0FFF7F6FFC148407858
:103D700000281EBFDFF8AC03016800291CBF0460E7
:103D8000012400F0F1F9204616BDDFF8941301E09C
:103D9000DFF87013DFF890030860704710B50C4629
:103DA000FFF70DFB848110BD80B5FFF708FB80890C
:103DB00002BDFFF73FBAF8B50446FFF769FADFF82E
:103DC000441308602046FFF735FA40BB04F00F00AB
:103DD0000125220605FA00F0204903D50A681043A0
:103DE000086002E04A681043486000F039F814F0B7
:103DF0000F0014D0210612D4082810DA00F0BDF903
:103E0000204600F039F9B24EF7682046FFF7E1FA94
:103E100005FA00F027EA0000F06000F0A5F9F1BD16
:103E200010B50446FFF7EFFA04F00F00012101FA84
:103E300000F0C0432206094903D50A681040086013
:103E400002E04A681040486000F00AF82046FFF798
:103E50001FFAB349086010BD000000001075024051
:103E6000BFF36F8FBFF34F8F7047000000E100E09A
:103E700000700240F8B506460C46FFF7AAFA00F0BB
:103E80007BF90F2006427B4F04D1B878864218BFD9
:103E9000102433D100F064F820FA05F1C80748BFB8
:103EA00011242BD43046FFF78AFA06F00F010C22BA
:103EB00012FB0171320611D52368143103F06043FF
:103EC000A268B3F1005F04D0D2074CBF974A984A6A
:103ED00006E0D2074CBF974A974A01E08031974AE3
:103EE00002604CCC4CC10C3941600024002181603F
:103EF00081730121F868A94000F038F82CE0000037
:103F0000E00F00F0F8B504460D46FFF762FA0646EA
:103F100000F033F90F200442564F04D1B8788442A0
:103F200018BF102418D100F01BF820FA06F1C807BA
:103F300048BF112410D42046FFF741FA00218160C8
:103F400000242968016069684160002181730121B2
:103F5000F868B14000F00AF800F006F92046F2BD1A
:103F6000B968F868C94389B2084370470843F860E4
:103F700080207349086070471A48704738B50C466E
:103F8000FFF71DFA00F0F8F8A868206028680028FC
:103F90009DF800000CBFAC7B112400F0ACF920466A
:103FA00032BD00F00F00082805DB66480068C10339
:103FB00004D500207047644951F8200070476349D8
:103FC00016E0624916E000F00F01082907DA000642
:103FD0004CBF5F485F4850F82100012800D0002006
:103FE00070470000243D00205B490860BFF34F8FFD
:103FF00040F480700860BFF36F8FBFF34F8F70473E
:1040000010B50446082100F0D9F93548016821703F
:10401000416861708168C26841EA0221618001697A
:10402000426941EA0221A1808169C06941EA002018
:10403000E08010BD0439002010B5FFF708F958B131
:10404000EFF3108472B64C20FFF7E4F84C20FFF732
:10405000E1F884F3108810BDBDE810404C20FFF754
:10406000D9B85020FFF7D6B85420FFF7D3B8184876
:1040700080787047243A00202DE9F04182B08046D4
:10408000FFF7E5F808F00F040127114D68B100F0C3
:1040900074F800F06DF800F061F861001A4801F260
:1040A000C5710160002141600DE08DF80000FFF74F
:1040B00056FE00F05DF800F051F80020224941F86A
:1040C0002400FFF7CDFE00F04FF8BDE8F3810000BB
:1040D000243A0020687402402075024000720240B9
:1040E0008074024000740240087502406C74024003
:1040F000A076024000760240A0770240007702409E
:10410000747402400473024000780240007502405B
:104110000714C0030714E0030475024084E100E0C3
:10412000087302402C750240041480017F330F0095
:1041300047330F001D330F00F9320F00C5320F0057
:1041400004E200E0C0740240A0740240187502400E
:1041500020740240447402400C75024007FA00F0DB
:1041600026EA0000A86070479DF8000000F0C3B880
:10417000AE684046FFF72DB9054600208DF80000D7
:1041800000A800F09DB8000008010C011001140106
:1041900018011C01200124012C0100003001340110
:1041A00038013C014001440148014C01500100002C
:1041B00006000000060000000600000006000000E7
:1041C00000000000060000000600000105000000DD
:1041D00002000000030000000400000006000002CE
:1041E000F7340F0019350F00C5350F00F5350F00F6
:1041F000F9350F00FD350F0001360F0005360F00B1
:1042000009360F000D360F0077370F0011360F00FB
:1042100059360F00A7360F00AB360F00AF360F0030
:10422000B3360F00B7360F00BB360F00BF360F0096
:10423000C3360F00FF360F001B380F008F370F00FB
:1042400077380F00D7380F0062B38B0708D0521EA3
:1042500011F8013B00F8013B00F024808B07F6D1F8
:10426000830740F0208000BF103A07D330B4B1E894
:104270003810103AA0E83810F9D230BC530724BFE8
:10428000B1E80810A0E8081044BF51F8043B40F81A
:10429000043BD20724BF31F8022B20F8022B44BF85
:1042A0000B7803707047083A07D3B1E80810083A52
:1042B00040F8043B40F804CBF7D25307E4E7FEE7AD
:1042C00030B5EFF3108172B6134A936873B90123C6
:1042D000124C93602568124B1D4015602360636883
:1042E00053604FF0FF326260002200E00122027052
:1042F00001B962B630BD08498A6862B158B9EFF3B6
:10430000108072B6074A0B6813604B685360002236
:104310008A6000B962B67047C83E002080E100E0C4
:10432000FC06FFBD00E100E00B486FF07F414160FB
:1043300005210160704709490A680B68D31A1B02FE
:104340001B0A8342F9D370470549064A0968B1FB45
:10435000F2F14843EFE7000010E000E018E000E071
:10436000442E002040420F0080B500F0F2F8BDE876
:10437000014000F076B910B54901020006D50B4B9B
:1043800000F00F04E31803F8041C01E0084C015589
:104390004109012200F01F0002FA00F0054A42F82C
:1043A0002100054A42F8210010BD000018ED00E090
:1043B00000E400E080E200E000E100E0002200F024
:1043C000C5B9FEE74FF0804181B00022425040580D
:1043D0000090009801B0704700F18040006800B183
:1043E0000120C0B270478049096801F0011140F412
:1043F0008030814201D101207047002070477B4905
:10440000012008607A480068C003FBD40020794985
:104410008870704780B500F091FA08B140DF01BDA7
:104420007549012008600120FFF7DDFF0028FAD15F
:104430007049487001BD38B56E4D2878002408B128
:10444000852413E0A86068602861E8606B48006814
:10445000C00703D407210020FFF78DFF00F06EFA9C
:1044600010B967490120086001202870204632BD3C
:104470000268134600E01B6813B18B42FBD1704702
:104480000A600160704780B500F039F85948C1688A
:10449000491EC160C06808B9FFF7B1FF40E038B5F8
:1044A000544C0546607830B115B1696800208847E2
:1044B00000F025F818E000F01DF825B1294604F1B8
:1044C0000800FFF7D5FF606870B900F037FA08B14F
:1044D0003FDF09E04FF48070FFF774FF4A49012085
:1044E00008604FF0804108606068401C606000F028
:1044F0001AF831BD8DF8000000A8FFF7E1BE0020DA
:104500008DF8000000A8FFF7DBBE80B5FFF7F7FFCE
:1045100038484168491E4160406808B9FFF77AFF92
:1045200000F001F801BD9DF80000FFF7E4BE38B5CA
:104530000400304814BF00F1100500F1080504E044
:104540000868286020464968884729680029F7D10B
:1045500031BD38B54FF48070FFF73EFF254C294D33
:1045600048B14FF48070FFF72DFF01202860607084
:104570000020FFF7DCFF4FF48270FFF72DFF50B1F2
:104580004FF48270FFF71EFF022028600120A07008
:10459000BDE83240CBE731BD002808BFFFF7C7BFF9
:1045A000704710B582B020B1012806D0032813D07F
:1045B00013BD16490120086013BDFFF7A0FF0D4C85
:1045C000207808B9FFF737FFE068401CE060012061
:1045D000A070FFF7A8FF13BD07210020FFF7CBFE57
:1045E000FFF751FF13BD00000C0400400C00004019
:1045F00018040040743E00200400004000E100E088
:1046000018050040080300400403004080E100E07A
:104610004FF08042815811B1002383500121084698
:10462000704710B5044600F010F8206801000AD069
:104630004349886000F082F908B1082010BD414963
:104640004FF460700860002010BD80B500F076F96E
:1046500018B93D494FF460700860002038498860FF
:1046600001BD38B53748364D0468600706D54FF4AC
:104670008470FFF7CDFF08B128688047A00607D5F2
:104680004FF48A70FFF7C4FF10B1696800208847B3
:10469000600607D54FF48C70FFF7BAFF10B1696858
:1046A00001208847200607D54FF48E70FFF7B0FF32
:1046B00010B1A96800208847E00507D54FF4907035
:1046C000FFF7A6FF10B1A96801208847A00509D50A
:1046D0004FF49270FFF79CFF20B1A968BDE8344009
:1046E0000220084731BD012802D115480068004763
:1046F000704710B5012882B0114C02D003280FD0AA
:1047000013BD00208DF8000000A8FFF7D9FD206838
:1047100008B1012035DF9DF80000FFF7ECFD13BD67
:1047200007210020FFF727FE2168064809B1042170
:104730000160A16811B14FF46071016013BD000008
:10474000E03E00200403004008030040401810F041
:10475000030308D0C91A1FD3DB0748BF00F8012D97
:1047600028BF20F8022D130030B414461546103926
:1047700028BF20E93C00FAD8490728BF20E90C00EF
:1047800048BF40F8042D890028BF20F8022D48BFFB
:1047900000F8012D30BC7047C91818BF00F8012D72
:1047A000CB0728BF00F8012D7047FEE7202805DA67
:1047B000644921FA00F202F001007047402807DA4C
:1047C0000121203811FA00F018BF0120C0B2704753
:1047D0000120704710B584B004460FF2A81100A85C
:1047E00000F0F5F802E000A800F0F5F8029A3AB1FE
:1047F00051681268204690470028F4D1112000E04B
:10480000002004B010BD10B584B004460FF2801132
:1048100000A800F0DCF806E05168126820469047D6
:1048200000A800F0D8F8029A002AF5D11FBD80B583
:104830001620FFF7BBFF28B942F20100BDE8024095
:1048400000F0D8B840480078400908280CD2002869
:1048500018BF012808D0042818BF052804D03B48F9
:10486000816821B93A491BE042F20200E6E701689B
:1048700041F48001016001BD80B51620FFF796FF6D
:1048800028B9BDE8024042F2010000F0B3B82F4859
:10489000816821B1016821F48001016001BD2D49C9
:1048A0004FF48000086001BD10B52B4C207882B019
:1048B00008B1082016BD0120A0700020FFF78AFF74
:1048C000112814D00020FFF79EFF0FF2DC002349CF
:1048D0000068009000A810DF50B90120207000206F
:1048E000A0706070FFF7A3FF0120FFF78CFF00208E
:1048F00016BD10B5184C207808B9082010BD01204D
:10490000A070FFF767FF11280BD00220FFF77BFF95
:1049100011DF38B92070A070FFF7AEFF0320FFF75A
:1049200072FF002010BD0C48817809B9082070473B
:104930000078002818BFFFF7DCBFB5E7064800780D
:1049400070470000FC06FFBD16E400E0C83E0020F2
:1049500000E100E080E100E0103F0020154A0F0078
:10496000E0B50FF2380100A800F031F805E0486822
:104970000968884700A800F02EF802990029F6D1AE
:1049800007BDEDE7308E0F00408E0F0008000000DD
:10499000408E0F00508E0F0008000000508E0F0058
:1049A000608E0F00080000000100000701E00831E0
:1049B0004160026841685268914202D100218160E1
:1049C00070470A684B689A42F1D082607047016074
:1049D00009684160EAE7816851B10268926851183C
:1049E000426881605368994202D102F10801F0E700
:1049F0007047FEE710B584B000A9002200231446DA
:104A00001CC1029000AA194644F2010000F002F80D
:104A10001FBDFEE710B500F08EFA00F07EF9002809
:104A2000FBD1114C0FF250012088000440F001002E
:104A300000F067F90D480068C00700D500BE208867
:104A40000FF24001000440F0020000F05AF9BFF3F9
:104A50004F8F0748074A016801F4E0611143016084
:104A6000BFF34F8F00BFFDE79C3F0020F0ED00E05B
:104A70000CED00E00400FA05466174616C2065727B
:104A8000726F720053797374656D2072657365740B
:104A90000000000010B5012450E8003F43EA040183
:104AA00040E8001292F0000FF6D1084610BD80B524
:104AB000DFF8A404FF21816000210160416000F261
:104AC00014404160016001720FF2A04000F058FAFA
:104AD00088B9DFF88804DFF88814DFF88824401AE2
:104AE000002104E00C2303FB01231980491CB1EBD6
:104AF000D00FF7D3002002BD30B5B9B1DFF85C1498
:104B0000DFF85C240568DFF85C34891A002200E0D5
:104B1000521CB2EBD10F07D20C2404FB0234648880
:104B2000AC42F5D1026001E0052030BD002030BD6F
:104B300001B500A8FFF7E0FF28B9DFF824040099C9
:104B400050F8310002BD002002BDDFF81424012915
:104B500002EBC00006D00DD3032907D004D30429EB
:104B600006D007E0022070470420704700797047A4
:104B7000407970470020704770B5DFF8DC4384B09F
:104B800004F58360FFF786FF04F214452846FFF71B
:104B900081FF6068A16805E0C2F3891303EB9252BC
:104BA000521C101801EA000204EB82020C32126857
:104BB00012F0030FF0D0002200AE01EA000304EB74
:104BC0008303401CDB6846F82230521C022AF4D3CF
:104BD000009901F00301012907D0022909D10099A8
:104BE000890DC91C00EB910003E00099C1F383110A
:104BF0000818002655E8003F03EA060245E80021B0
:104C000091F0000FF6D103B160607FBDF0B5059C57
:104C1000DFF844535E1C234005EB83030C3326402E
:104C200005EB8606070CC4064CBF0424002400F0E4
:104C3000070044EAC00040EA82108005800D40EA87
:104C40008120F76040F001001860F0BD70B582B0BF
:104C5000841C00208DF800000E4600A8FFF730FBF2
:104C6000DFF8F45228683060A61C01E0FFF784FFEB
:104C7000A8682968401C401A69680818B042F5D332
:104C80002868A968084005EB800050F80C1F41F027
:104C9000030101602868201828609DF80000FFF7D4
:104CA0002AFB012076BD2DE9F043DFF8AC6283B02A
:104CB00004460D469946B768904601A94846FFF755
:104CC000C5FFA8B10198801C002108E007EA000296
:104CD00006EB820258F82130D360401C491C49453C
:104CE000F4D300974A46019B29462046FFF78EFFE2
:104CF00096F81C0418B100F010F80028FBD1BDE8AC
:104D0000F78300230022CEE7934841680068814280
:104D100001D101207047002070472DE9F04F85B088
:104D2000FFF7F2FF002840F0B1808B4D05F582645B
:104D3000A060BFF34F8F05F10409D9F800A0D9F89E
:104D400004B005E0C0F3891101EB9050401C82448F
:104D500000F0C2F80C30006810F0030FF2D000270A
:104D600000A900F0B9F80AF1010AC06841F827006B
:104D70007F1C022FF5D300990FF2F01001F0030110
:104D80000229009947D18E0D3746502EA8BF5026D4
:104D900066F39F51009106F1080100F0F3F85FEA15
:104DA000000837D000F036F900F09BF80BEA0A0053
:104DB0000BF10101091A8A00B24205EB800018D2FA
:104DC0002AB905F10C01B3460025002604E000F1E4
:104DD0000C0193460C35B61A5FFA8BFB08235A4632
:104DE000404600F06CF95DB10BF10803F2B22946C0
:104DF00003E00823324600F10C01404600F05FF961
:104E0000F81C0AEB900A2768A068002848D04046A2
:104E100000F00EF957E001F0030101292ED10099AD
:104E2000009AC1F383110629A8BF062122F47072EB
:104E300042EA811100910099C1F38311891C890014
:104E400000F0A0F85FEA00083DD000F0E3F800F0C1
:104E500048F8082600270098C0F383108742D2D272
:104E600000F03AF800F10C0133460422404600F00D
:104E700026F90AF1010A361D7F1CECE7009800F0C4
:104E80000300032804BFA06800281CD1002020E0F4
:104E9000787A20B13A6812684146384690477F6870
:104EA000002FF5D1404600F0C3F800208DF80C002B
:104EB00003A8FFF705FAA06808B9C9F800A09DF893
:104EC0000C00FFF718FAFFF71FFF00F0010080F059
:104ED000010005B0BDE8F08F0BEA0A0005EB800089
:104EE00070470023082200A9404600F0E8B810B53A
:104EF0000021194AD2F8103400E05B6843B11C7AF3
:104F00008C42FAD1491C0A29F4DB4FF0FF3110E042
:104F100011F1010F0DD00172D2F8103423B9C2F88B
:104F200010040022426004E05B684360D2F8102461
:104F30005060084610BD10B50B480468012101738C
:104F400006E001206072204621684968884764684D
:104F5000002CF6D110BD0000482E0020448C0F001C
:104F6000CC8B0F00183F002058320020043F002057
:104F7000FC3E0020043F0020103B002018000000F1
:104F800000F0A8B82DE9F04104460F46208A061F1C
:104F9000204600F0B6F8050021D000202871EE80F0
:104FA00001206871A846F019C01CB0FBF6F0C0B231
:104FB000461EC8F80040002707E06979491C69715E
:104FC000C8F80000046080467F1CB74209D2204622
:104FD00000F097F80028F0D1284600F005F80020EE
:104FE00000E02846BDE8F081F8B544790546611E29
:104FF000002200E0521C2D688A42FBD3002606E006
:1050000007680146284600F09EF83846761CA642FE
:10501000F6D3F1BD10B5031D012453E8002F02EBB8
:10502000040143E8001090F0000FF6D110BD00001D
:1050300038B5041D012554E8003FA3EB050244E800
:10504000002191F0000FF6D100929DF80010002988
:1050500004BFBDE83240FFF7C7BF31BD2DE9F047BF
:10506000C68804468846181D1746B0FBF6F106FBB5
:105070001102002901E02468491EFCD1B01ABA4689
:105080008742089D4FF0000988BF82460AE0FFF77B
:10509000DBF80022A7EB0A07D1442468BA46B742DE
:1050A00088BFB2464FB1131909EB0800002D5246D4
:1050B00012BF191D0146181DE9E7BDE8F08710B5BC
:1050C00082B0002402E010B582B001240094FFF702
:1050D000C5FF13BD10B508B90E2010BD03684168A7
:1050E00082681960521A03E019684C1C1C600A702F
:1050F00011464A1EC9B203680029F5D10020187173
:1051000010BD38B5044600258DF8005000A8FFF703
:10511000D7F82068626801688A420ED2491E016091
:10512000E2680B78258A05FB0325A268511A0279EB
:10513000C9B28A4238BF0A4602719DF80000FFF7E3
:10514000DAF8284632BD38B5044600208DF8000054
:105150000D4600A8FFF7B4F8206801684A1C0260F9
:10516000E068228A281AB0FBF2F008709DF800006F
:10517000FFF7C1F831BDFEE7027A914201D300206A
:10518000704701EB4101081809307047427891429D
:1051900001D30020704782781018081870474268C1
:1051A00012681047DFF8E81649680A0018BF084778
:1051B0007047F8B5154642680C461E46526831469F
:1051C0009047010013D00022002303E05B1C00780D
:1051D00052FA80F23068824209D250184778A742CA
:1051E000F5D1DBB29D42F1D101783160F2BD0020F2
:1051F000F2BDDFF89C1600F00F02000601EBC201C1
:1052000002D501F1F400704701F11000704710B5AC
:105210000C46FFF7EEFF002C04600EBF0021616812
:105220000968416010BDDFF86826014610695269BF
:10523000104770B5DFF8585682B0044605F1E40611
:1052400000A9304600F05CFB58B12168016030468F
:1052500000A900F077FB2A68014610001CBF204619
:10526000904773BDE5E70FF24860E2E758B50446A2
:10527000801E02D0C01E032801D8012000E00020BB
:10528000DFF80C66317B891E02D0C91E032901D8C4
:10529000012100E0002188420BD0A01E02D0C01ED8
:1052A000032804D806F59E70FFF7F9F801E0FFF730
:1052B0002CF9022C317B16BF082C0120002002297A
:1052C00016BF082901210021884208D0022C18BFEE
:1052D000082C02D1FEF75CFD01E0FEF756FD3473A9
:1052E00051BDF8B50546DFF8A8450423842204F132
:1052F000600104F1E40000F0EFFA08B10320F2BD10
:10530000FFF799F8DFF88C05FEF73CFC58BB002D41
:1053100006BF0021002207CD07C40C3C00202073EB
:10532000A065E06500F047F800F040F80024DFF8E1
:105330006855E1B22846FFF71FFF0646641C56B1C8
:10534000002700F079F97F1C0028F2D00078294668
:10535000FFF75DFFF5E70FF25C500068009000A9D1
:105360002846FFF71CFFF2BD10B5FEF74CFCE0B974
:10537000DFF81C4504F15800002202E009680260D1
:10538000084601680029F9D104F15C0002E00968CF
:105390000260081D01680029F9D100F00CF800F046
:1053A00005F800200021024607C410BD482104F181
:1053B000100000F013BB482104F1F40000F00EBB14
:1053C000FEF72DBCFEF75DBCDFF8D004016889074D
:1053D00003D40168C907F9D470470FF2DC4028E70D
:1053E00080B50FF2D84002E080B50FF2D44000F053
:1053F00001F801BD0068009000A81AE780B50120FF
:1054000000F0AEFD20B10FF2BC40FFF7F3FF01202A
:1054100002BD38B5DFF8785404462178287B00298E
:1054200068D0012971D0022900F08E80032970D044
:10543000042977D0052900F09780062900F098808C
:105440000B2900F08A80802936D0812906D0822954
:1054500018D0832938D084293ED031BD0FF268445A
:1054600000F09FF800F09BF80920FFF79BFEE86D25
:1054700000280CBF287A0120FEF716FC00F0F5F991
:1054800001205EE000F0F1F9FEF72EFC0020FFF7AE
:10549000EDFE0FF2384400F082F800F082F80A20A6
:1054A000FFF780FE287B801E02D0C01E032875D81F
:1054B000BDE83140FFF729B8052841D06ED3072851
:1054C0003ED06BD208203CE0032867D1FEF72BFCCE
:1054D000002863D0042034E0032805D1FEF723FC24
:1054E00010B10420FFF7C2FEFEF73CFC002855D0A7
:1054F000062026E00020FFF755FEED6D002D4DD073
:1055000000F01DF928684568F8E700F0AEF90220C0
:1055100000E00520FFF7AAFE0320FFF743FE00F09E
:1055200040F81DE00320FFF73DFE0FF2A43400F029
:1055300038F800F034F8287B062808BF072000D090
:105540000220BDE8324091E60320FFF78FFE0220E3
:10555000FFF728FE00F023F806E00B20FFF722FEFD
:105560002046BDE83240DEE02046BDE832405AE643
:10557000A078FFF73EFE0246214610685268904729
:1055800000281EBFA0780F21084207D000F00F01AD
:105590000829BCBFBDE83240FEF711BD31BD204631
:1055A000C1E020463FE610B582B0DFF8F44200A922
:1055B000204600F0D7F930B1FFF72BFF00A92046B5
:1055C00000F0FCF9012016BDF8B50446002500F0F6
:1055D00028F906466D1C6EB1002700F02DF87F1CDF
:1055E0000028F4D00078FFF704FE00680028F4D00B
:1055F0001120F2BD002500F014F906466D1C56B1CD
:10560000002700F019F87F1C0028F4D0007821460C
:10561000FFF7FDFDF5E7DFF88C0200E008680168A0
:105620000029FBD1046000A90FF2A82000680090B7
:105630002046FFF7B4FDF2BDF9B23046A6E59A491F
:1056400001E01168091D0A68002AFAD108600020EB
:105650007047954901E01168091D0A6842B182420C
:10566000F9D1006842680A6000214160002070475B
:10567000052070478D480178491C02E08B4801786D
:10568000491E0170002070478848007800B1012051
:10569000704710B5044604F00F00082805DA2046CC
:1056A000FEF7A2FC2046FEF78CFC2046BDE8104029
:1056B000FEF781BB7648806D70472DE9F04180464A
:1056C0007348866D0D4601E0306806688EB1377A02
:1056D000002400E0641CE4B2BC42F5DA2146304606
:1056E000FFF74AFD00784045F4D105B12C703046F3
:1056F00000E00020BDE8F081114650E510B50C46F1
:10570000020600F00F0103D5092903DB102010BDAC
:105710000929FBDAFFF76DFD00680028F6D0214665
:10572000BDE810403BE538B504465948856D03E0B7
:1057300000F005F828680568002DF9D131BD214633
:1057400028462CE538B552498D6D0446062001E007
:1057500029680D681DB1FFF7F2FF0628F8D032BDA9
:1057600038B504460D46FEF724FB18B14848007BC7
:10577000022801D0082032BD29462046BDE8344029
:10578000FEF778BB38B504460D46FEF712FB18B19C
:105790003F48007B022801D0082032BD2946204620
:1057A000BDE83440FEF7AEBB70B504460D466068F8
:1057B00083681800164603D020469847062812D161
:1057C0000EB1072070BD294600F02CF8044665781C
:1057D00005E000F009F8761C0078FFF75AFFF6B2F2
:1057E000AE42F6DB002070BD31462046CEE470B5F7
:1057F00004460D466068C26810001CBF20469047F2
:10580000294600F00FF804460026657805E0FFF70A
:10581000EBFF761C0078FEF703FBF6B2AE42F6DB38
:1058200070BDE9B22046FFF7A7BC10B502460020C4
:1058300053681B691C0003D0BDE810401046184790
:1058400010BD70B51248846D0AE00022294620463A
:10585000FFF7AAFF6D1CEDB2B542F6DB20680468C5
:1058600014B1267A0025F6E770BD70B50848846D3E
:1058700009E029462046FFF7BAFF6D1CEDB2B5429C
:10588000F7DB2068046814B1267A0025F6E770BDBE
:10589000002C002065520F00C88E0F003804004015
:1058A000E42C0020582C00205C2C0020133F00200A
:1058B000800000000700000081000000820000005E
:1058C0008300000084000000090000000A000000BE
:1058D000030000000700000010B509B90E2010BD3C
:1058E00092FBF3F403FB14240CB1092010BD0160FA
:1058F0008281002141608160C381002010BD0000D1
:105900003CB550E8015FAAB2C3891A4483899A4220
:1059100028BFD21A03899A4202BFBFF32F8F0024F7
:1059200007E0C2EA050240E80123002BE9D14FF06D
:10593000010400F03AF81AB100680988081836BD69
:10594000002036BD0A8849888A4209D150E8011FE3
:10595000C1EA014140E80112002AF7D10120704755
:10596000002070473CB550E8025F1FFAA5F2C388DB
:105970009A4202BFBFF32F8F00240DE0C3891A445F
:1059800083899A4228BFD21AC5EA024240E802231C
:10599000002BE8D14FF0010400F007F81AB10068BD
:1059A0004988081836BD002036BD01958DF80040A5
:1059B000019A0A609DF80020704700000A88498813
:1059C0008A4209D150E8021FC1EA214140E802128F
:1059D000002AF7D10120704700207047002200F014
:1059E000F1BAFEE7DFF888150A7A824204D008721D
:1059F0000FF2B450FFF70DBD7047002070472DE93E
:105A0000F84F0D46044668689246012618B9206092
:105A10000026606039E0FEF7AFFAFEF7ADFA804687
:105A2000E86800278245D14602D9814600E0002679
:105A3000B9F1000F26D0A868B8B1CB46814588BF20
:105A4000834669685A4607EB0800FEF7FDFBA86825
:105A5000A0EB0B00A860A9EB0B09E868A0EB0B001A
:105A6000E8605F44686858446860E8680028DED0F1
:105A7000A8680028DCD1286850B9686017B157457C
:105A800038BF0026C4F8008067603046BDE8F28F5A
:105A90004268526805F1080190476860286800680C
:105AA00000682860C4E710B582B00C4600A800F07A
:105AB0004FFA0146002008704870DFF8B4240878D7
:105AC00040F001000870527AC2F3400212B140F077
:105AD000020008700222601C00F0F4F916BD2DE9E6
:105AE000FC410C462079012804D05FD3032851D013
:105AF00004D35BE012220FF2904153E0B4F8075058
:105B00000A2D28BF0925FFF7D5FD4FF0090800260B
:105B100007460AE07A68526800A93846904700981C
:105B20008044387A861938680768002FF2D100A8B7
:105B300000F00EFA07462A460FF26041FEF784FB9A
:105B40003E71A7F80280FFF79FFD18B1F87940F089
:105B50002000F871FFF7AEFDDFF818643060776061
:105B6000B560B4F80700F06000208DF8040001A8CB
:105B7000FEF7A6FB0FF23C418020FFF703FE040076
:105B800002D100F0D1F904469DF80400FEF7B3FB02
:105B900020460CE0B4F80510E07800F02DFA010082
:105BA00004D00A78601C00F08DF900E00620BDE802
:105BB000F68138B50C466178C1F34112002A5ED1F6
:105BC000A278DFF8AC53C9091FD022B1062A06D04B
:105BD000082A08D053E02146FFF765FF32BD214671
:105BE000FFF77DFF32BD00A800F0B2F90146287A28
:105BF000052808BF012002D0042840D100200870E9
:105C00000122601C00F05EF932BD287A697A012A0F
:105C100016D0032A0DD0052A02D0092A18D02EE06A
:105C200003281CBF0428052816D1FFF71EFE0420F8
:105C30001FE0B4F80300012821D141F0020005E083
:105C4000B4F8030001281AD101F0FD00687212E0D7
:105C5000052818BF042801D0082032BDE07818B903
:105C6000FFF703FE042004E0012806D1FFF7E9FD59
:105C70000520FFF7B7FE002032BD072032BD062009
:105C800032BDF0B585B0064605208DF8000006242B
:105C90000DF10100FEF7B4F99DF80100B44D10F0CC
:105CA0001F0005D002285AD00AD3032807D09CE051
:105CB00000A93046FFF77DFF0446062CF7D190E09F
:105CC0009DF8050004A9FFF7F8FC060005D1102493
:105CD000FEF7CAF9204605B0F0BD9DF8101000AAE5
:105CE000FFF70AFD0446062C0ED19DF801009DF831
:105CF0001070C0F341110029EAD1297A9DF80220E1
:105D0000C00919D072B10A2A6FD1052918D103A888
:105D100000F01EF9044639463046FFF786FD207034
:105D2000012258E005290BD103A800F011F9002148
:105D30000180022201464FE00B2AC9D1052901D07A
:105D40000824C5E7BDF80300FF28C8BF0724BFDC4F
:105D50009DF8032039463046FFF726FD44E09DF8C4
:105D600005000F21084205D000A9FFF7C7FC044633
:105D7000062C3AD19DF80100C0F341100028A7D1AC
:105D80009DF80560BDF803109DF8022006F00F0095
:105D9000C2B1012A02D0032A0BD026E0082897DAE4
:105DA000002995D13046FEF71FF93046FEF709F974
:105DB00006E008288CDA00298AD13046FEF7FFF881
:105DC000002414E003A800F0C3F804463046FEF7B0
:105DD000FAF82080022221460DF1010000F072F84D
:105DE00002E000A8FFF7AEFC0446002CE4D12868CE
:105DF00010B9FEF736F96DE7FEF71EF96AE7000005
:105E000070B50C4606252178594E491E092954D8EB
:105E1000DFE801F0052D09531E2F2D22242A03202F
:105E2000FFF7E0FD49E006F10C03002453E8002FE2
:105E300002EA040143E8001090F0000FF6D1B2B17D
:105E40004D4901200860BFF36F8FBFF34F8F0EE005
:105E5000FFF717FF054630E0002006E047480068DE
:105E6000C00748BF022000D40120FFF7BBFD00257A
:105E700023E0326810001DD0002030607168E078A7
:105E80009047050017D13068C8B9A078A8B93C4838
:105E90000178082904BF017911F00F0F07D1017AA9
:105EA00011F0F00F04BF007B10F0F00F05D0FEF7EB
:105EB000D8F802E00E25FEF7D7F8284670BDFEF7A9
:105EC000BBF8FAE77FB5C0881646B0420D461DD232
:105ED00004460020010018BF012100208DF80000B9
:105EE00003910195029400A8FEF7EAF901A9802028
:105EF000FFF736FC040002D100F016F804469DF8C6
:105F00000000FEF7F8F9204604B070BD8642344622
:105F1000DFD28020FDF748FFB6FBF0F100FB1160F7
:105F2000401E8041C00FD5E70FF280018020FFE7BF
:105F300038B504460D46FEF79AF8A04201D010206D
:105F400032BDD5E900010A4AC2E90001002032BD94
:105F500008B1402101600B4870470548007A70473E
:105F60000349497A21FA00F202F00100704700006B
:105F7000883E0020983E00205C70024038040040BB
:105F8000E00F00F0E43C002012010002000000409D
:105F900015190F520001010203010000090200005F
:105FA000000100C0FA0000000B000000FB590F00C8
:105FB00000000000FF590F00983E002062F30F22FE
:105FC00062F31F4200B500BF130096469446103995
:105FD00028BFA0E80C50FAD85FEA417C28BF0CC06B
:105FE00048BF40F8042BC90728BF20F8022B48BF40
:105FF00000F8012B00BDFEE710B90FF2200070473A
:10600000052801D3002070470FF21401405C10B145
:10601000014951F820007047082E002004030900B0
:1060200000010203040000000EE016E0D0F80403B3
:10603000084018BF0120C0B2704700F20C508260C7
:106040000160704712E000BF81B000220A5008587A
:106050000090009801B0704700BF085800B10120BF
:10606000C0B2704700F20C5002E000BF00F5A16022
:10607000016082607047012100F01F029140DFF84B
:10608000E026400942F82010704741EA420141EA07
:10609000830210B50299202842EA012232BF4FF054
:1060A000A04400F01F00DFF8BC46039904EB800019
:1060B00042EA0141C0F8001710BD00B583B00021CD
:1060C0000191009101220023114606E000B583B042
:1060D0000022019200920B460021FFF7D6FF07BD78
:1060E00000B583B000210191009100230122F4E763
:1060F000202832BFDFF8701600F01F00DFF86C16A2
:10610000012202FA00F00860704738B50D460446D7
:10611000286810F1010F04D0FFF7EAFF2868FFF7A5
:10612000CCFF686810F1010F1CBF0021FFF7CEFF04
:106130002279DFF83C16A86901EB4211097F00299A
:106140002168C1F82405687D297D1CD000F039F84C
:10615000FFF788FF287D012832D1A86810F1010FD0
:106160001CBF0021FFF7B2FFE86810F1010F04D057
:10617000FFF7BEFFE868FFF7A0FFAA68E96820689C
:10618000BDE8384071E700F01CF8FFF756FF287DA6
:10619000012815D1A86810F1010F1CBF0021FFF7DD
:1061A00095FFE86810F1010F04D0FFF7A1FFE86840
:1061B000FFF783FFAA68E9682068BDE8384041E737
:1061C00031BD08432168C1F86C056A6829682068F8
:1061D000704738B50D4600F081F880B120684FF463
:1061E0008871FFF730FF00F0FEF820684FF49271DD
:1061F000FFF729FF00F07CF9DFF8780508E000F0F0
:1062000051F920684FF4A271FFF70EFFDFF868051F
:106210002168C1F8040329462068BDE83440000322
:106220000016FEF7A8B80279DFF8441501EB421119
:10623000097F0268002914BFDFF83815DFF83C1524
:10624000C2F8081300680003001614E72DE9F041B6
:1062500000F044F80028206812D000F5A1614FF04A
:10626000FF324D68CE680F68D1F808801146FFF7FD
:10627000F9FE4FF0FF3220681146FFF7F6FE12E0FC
:10628000D0F80C55D0F81465D0F80875D0F8108502
:106290004FF0FF321146FFF7D0FE4FF0FF3220687B
:1062A0001146FFF7CFFE15F1010F1CBF2846FFF77F
:1062B00017FF16F1010F1CBF3046FFF711FF18F151
:1062C000010F1CBF4046FFF70BFF17F1010F03D072
:1062D0003846BDE8F04103E7BDE8F0810446DFF849
:1062E0009004217900EB4110007F70472DE9F041C7
:1062F0000446DFF87C84207908EB40170D46F87ED1
:10630000164608B1082020E0687F38772046FFF75E
:10631000FCFE7E6028693860786818B1297F2046C5
:10632000FFF757FF2079216808EB4010007F002815
:1063300014BF08200420C1F800050020F875387645
:10634000B8750120F8760020B876BDE8F08138B540
:1063500000F0FAF800B100202168C1F80005686873
:1063600010B12046FFF75FFF2046FFF76FFF0020C8
:10637000E876686031BD38B50D4604464FF48E713D
:10638000FFF752FEA868A98A085CA98A491CA9825D
:10639000C4F81C0531BDF8B50446DFF8D4032179F3
:1063A00000EB411500F01FF800F0C9F82168A87D46
:1063B000AB6801F2445200261360506001208860EF
:1063C000686870B920684FF49071FFF745FE074682
:1063D00000F0B1F850EA0701F4D000B10F26002018
:1063E000A8753046F2BD20684FF490712BE62DE978
:1063F000F0410446DFF87853207905EB40170E464C
:10640000387F00281EBF06F06040B0F1005F10200A
:10641000904641D1204600F049F808B111203BE0F8
:1064200087F81680BE60B882207905EB4015287F7A
:1064300018B12046BDE8F041ADE700F033F8206820
:106440000121816000262946FFF795FF686810BB8F
:106450000EE000F023F818B9A88AB0F5807FF8D1D3
:10646000A88AB0F5807F03D020682946FFF783FF14
:10647000A88AA97D8842ECD3A88AB0F5807F08BF9E
:106480000F2606D000F00AF80028FBD02168012072
:10649000C8600020A8753046BDE8F08120684FF440
:1064A0008E71C2E520684FF48E71BDE50079DFF88A
:1064B000C01201EB4010807D00B10120704738B55B
:1064C0000D460446E87D00284FF48471204604D12F
:1064D000FFF7AAFDD4F8180531BDFFF7A5FD687ECA
:1064E000D4F81815EA688154687E401C687631BD7E
:1064F00020684FF4A271A6E500B585B003460120DF
:106500008DF808108DF80000019200A819685A68EB
:106510000EE000B585B0024600208DF800008DF831
:106520000810906801900020907500A811685268CA
:10653000904705B000BD20684FF4AC718CE5206831
:106540004FF4AC71FFF77FBD04468948217900EB19
:106550004115287F70477FB50D4604464FF4007102
:10656000FFF764FD4FF4017620B34FF4927100F011
:106570007BF8F8B14FF492712046FFF755FDC4F84F
:106580000863A87E08B90120606002208DF8000031
:10659000D4F88004C4F880040390E87D8DF80800E6
:1065A000E86801900020E875287629686A6800A8E4
:1065B000904729E004212046FFF738FD20B34FF42F
:1065C000847100F051F8F8B129462046FFF777FFB3
:1065D000E87D697E884217D1287E40B1EA68697EED
:1065E000E8752869E86000202876687609E0A87ECA
:1065F00008B901206060C4F808630020EA68E87503
:10660000697E2846FFF778FF4FF48E7100F02CF872
:1066100090B1A88AA97D884204D229462046FFF776
:10662000AAFE09E04FF48E712046FFF7FDFCA97D1C
:1066300011B12846FFF76DFF4FF4A27100F014F876
:1066400088B14FF4A2712046FFF7EEFCA87E08B196
:1066500001202060E87D30B10020EA68E875284616
:10666000697EFFF749FF7FBD2046FFF7DEBC7FB59F
:106670000C464FF492710546FFF7EEFC05F23C56CE
:10668000C0B14FF4927100F05EF802208DF8000066
:10669000D5F88004C5F88004039030688DF80800B0
:1066A000E06801900020E07520762168626800A80B
:1066B000904722E04FF488712846FFF7CDFCE0B107
:1066C0004FF4887100F03FF83168E07DC9B2814233
:1066D00013D1E268207E60B1D5F8000220F02000DE
:1066E000C5F80002207EE0752069E0600020207679
:1066F00000E0E0752046FFF7FFFE4FF4A271284648
:10670000FFF7AAFC68B14FF4A27100F01CF8E07D1D
:1067100038B10020E07520463168E268C9B2FFF761
:10672000EBFE4FF490712846FFF796FC50B14FF402
:10673000907100F008F8A07D20B13169C9B22046FF
:10674000FFF7E7FE7FBD2846FFF77DBC08490C48F0
:106750000A7F002A18BFFFF78ABFFCE6000000008E
:1067600080E100E0000300500805005008080050D8
:10677000403E00201003020080000200840202005C
:1067800000200040DFF860150858012818BF0020DD
:10679000704700F1804000F5C040002181B00160E9
:1067A00000680090009801B0704741EA420141EA58
:1067B000830210B50299202842EA012232BF4FF02D
:1067C000A04400F01F00DFF82445039904EB80008B
:1067D00042EA0141C0F8001710BD202832BFDFF89F
:1067E000102500F01F00DFF80C2552F8203023F4AC
:1067F000403342F8203052F8203043EA014112E1A0
:10680000202832BFDFF8F01400F01F00DFF8EC148E
:1068100007E0202832BFDFF8E81400F01F00DFF89F
:10682000E414012202FA00F008607047202832BF09
:10683000DFF8D41400F01F00DFF8D014096821FA43
:1068400000F202F0010070477CB50FF2D84460CC32
:1068500000AB60C3034607E000AC54F82340D4F813
:10686000104542F8044B5B1C0C18A342F4D373BDD3
:10687000012200F00703C0089A40405C10407047B6
:10688000DFF88C14401890F9280008288041C00FC8
:106890007047DFF87C14401890F92800082801DBC5
:1068A0000120704700207047DFF86414401890F909
:1068B0002800C043C00F7047F0B5002A4FF0FF33E7
:1068C00007BF08240A2500240825DFF8446400E0F7
:1068D000641CAC420DD256F824709F42F8D1831943
:1068E00083F8284046F8241012B9A11981F8500005
:1068F000234658B2F0BDDFF818144FF0FF3241F8CC
:1069000020200828A4BF401880F85020704738B5D0
:10691000DFF8FC4394F85A0008B1082032BDFF228A
:10692000302104F12800FFF749FB00252846FFF736
:10693000E2FF6D1C0A2DF9DB02210620FDF71BFD8D
:106940004FF4BE70FFF725FFDFF8C8134FF000408B
:106950000860012084F85A00002032BDF0B50546D9
:10696000DFF8AC0328180E4690F92810002411F126
:10697000010F83B018BF08243FD1B17851B96FF02F
:10698000010180F828107078012828462BD1FFF7E4
:1069900037FF2AE0012200212846FFF78DFF10F182
:1069A000010F1ED071783778DFF86C23DFF86CC3E5
:1069B00052F820300CEA030342F820304FEA052C4D
:1069C0003F040CF47C5C07F44037090552F8203092
:1069D00047EA0C0701F480113943194342F82010AB
:1069E000D1E7042409E0FFF714FF01220194009489
:1069F000002311462846FFF7D8FE2046FEBD20287A
:106A000032BF4FF0A04100F01F00DFF8E01201F2AA
:106A1000045101230A6803FA00F020EA02034B60E4
:106A200010408860704742F820107047F0B583B07E
:106A300005460F461646FFF737FF002408B1082425
:106A400046E0FA7831462846FFF736FF064616F14B
:106A5000010F3CD0B87880B12846202832BF4FF0D3
:106A6000A04100F01F00A14901EB8000D0F8001701
:106A700021F00201C0F8001707E001900090002209
:106A80007B7811462846FFF790FEF878A0B1397858
:106A9000A148A34B50F826201A4040F826202B028C
:106AA000090450F8262003F47C5301F440311943C3
:106AB000114340F826100BE095483A57311830182A
:106AC00091F8501041EA821180F8501000E004243F
:106AD0002046FEBDF8B50D4607468D4CFFF7D9FEA2
:106AE0003E19B0B196F92800001990F9500000063F
:106AF000800F032804D13846FFF798FE10B103E059
:106B0000012801D1022100E003213846BDE8F4400C
:106B100063E63846FFF7B4FED0B196F928707E4898
:106B200050F8271041F0010140F82710B80000F597
:106B3000807000B2FFF72DFE002D1EBF96F92800D1
:106B400054F82000002803D001207249B8400860A2
:106B5000F1BD2DE9F04F89B002A800210A4606C018
:106B600000264FF48079012708250FFA89F0FFF7F6
:106B700009FE00281EBF67480068384204D00FFA9B
:106B800089F0FFF706FE3E437F006D1E09F1040900
:106B9000EBD14FF4BE70FFF7F5FD50B14FF4BE706E
:106BA000FFF7F7FD02AA02210020FFF74DFE46F095
:106BB00000463006DFF8589115D00127564C374271
:106BC0000DD054F8250054F8251059F8252013004D
:106BD00005D0090C01F00301C0F3052090477F00A8
:106BE0006D1C082DEBD3002E7BD506A800210022BA
:106BF00006C04FF0FF300090019006AE06E0049A08
:106C000002924160069A7068009201900027002568
:106C100005EB090090F95800C4B210F1010F24F0FF
:106C2000C0084BD000A94046FFF722FE002845D0FF
:106C3000A00900F0030408EB090090F9280059F8B6
:106C400020A0BAF1000F02D1032C37D101E0032CB0
:106C500008D14FEAD8000122815D08F007039A406D
:106C6000114381554046202832BF4FF0A04100F02B
:106C70001F001E4901EB800002A9D0F80007000C9C
:106C800000F0030B4046FFF7F3FD18B1BBF1020F14
:106C900014D102E0BBF1030F10D1032C08D1BBF1DA
:106CA000020F0CBF032102214046FFF796FD7F1C17
:106CB000BAF1000F02D021464046D0476D1C022D8C
:106CC000A6D3FFB26FB104AA02210020FFF7BCFDDA
:106CD000049A029B059902A89A4204BF4268914215
:106CE0008DD109B0BDE8F08F006000400003005076
:106CF00000070050000A0050080500500808005026
:106D00000C0500500C0800501005005010080050F1
:106D1000883C00200463004010650040FFC0ECFF89
:106D2000FFC0FCFF000000500003005010B5826857
:106D3000531C83600468115541688B4224BFBDE831
:106D4000104000F087B910BD2DE9F84F8146884604
:106D500092461E4640464FF0010B03E0B0FBFAF0AE
:106D60000BF1010B5045F9D2B3450B9D0A9C38BF7E
:106D7000B346E8070ED46CB1A80700D50EB12027A2
:106D800000E03027A34505D2394600F078F8641EAC
:106D9000002CF7D1012702E0761E0AFB07F7022E2E
:106DA000FAD2B8FBF7F0504528BF0AFB07F7F8D234
:106DB0000FF29021B8FBF7F007FB1088415C00F060
:106DC0005EF8B7FBFAF7002FF2D1E80707D534B128
:106DD000A34504D200F052F8641E002CF8D1BDE89F
:106DE000F18F2DE9FC4781460D46280092461F464B
:106DF00048BF40424FF0010803E090FBFAF008F171
:106E000001085045F9DAB8450A9E0B9C38BFB846D0
:106E100026B1002D01D4600700D5761EA00700D54D
:106E20004FB1E00707D436B1B04504D200F026F8E0
:106E3000761E002EF8D1002D02D56D422D2102E0E4
:106E4000600702D52B2100F01AF804F00300022895
:106E500008BF002F08D13EB1B04505D2302100F067
:106E60000EF8761E002EF7D1019400963B4652464E
:106E700029464846FFF768FFBDE8F38720214846CA
:106E800054E72DE9F0430D0083B08046164600F02C
:106E9000CA8015F8011B002900F0BD80252940F0AB
:106EA000B480002002E040F001006D1C29782B29FD
:106EB00007D02D29F7D0302908BF40F00200F4D0C8
:106EC00002E040F00400F0E700270A2204E002FBA1
:106ED00007136D1CA3F130072A2907D131683160EF
:106EE0006D1C51F8043B3160DF1904E02978A1F1F1
:106EF00030030A2BEBD3297800232E290CD16D1CEB
:106F000004E002FB03116D1CA1F130032978A1F10B
:106F1000300CBCF10A0FF4D3297801E015F8011FF9
:106F20006C2918BF6829F9D025296AD058291ED0A4
:106F300063290CD0642918BF69290FD070294AD061
:106F400073291DD075290FD0782910D05BE03068E7
:106F5000306050F8041B3060C9B252E000F065F8B0
:106F60004046FFF73EFF4EE000F05FF845E0326834
:106F7000326052F8041B32600190009710223CE00E
:106F800031683160C00751F8044B31604FF000099F
:106F900009D4B4B1204600F07BF8814611E000F03E
:106FA0004EF809F1010914F8011B0029F7D1B94580
:106FB00029D247B300F042F87F1EF8E700F03EF810
:106FC0007F1EB94501D2002FF8D114F8011BD1B1B1
:106FD00000F035F8F9E730683060302150F8047B74
:106FE000306000F02CF8782100F029F800200190A2
:106FF000082308200090102239464046FFF7A4FEDF
:1070000001E000F01CF86D1C01E000F018F8287891
:1070100000287FF43EAF98F80C0020B14046BDE850
:10702000FE4300F017B8BDE8F7833268326052F8CB
:10703000041B3260019000970A22704720214046CD
:1070400074E6000030313233343536373839414256
:107050004344454610B50446A2682AB12168206918
:10706000636998470020A06010BD01B970470CB457
:1070700080B50FF218021268009202AA009200AACC
:10708000FFF7FFFE01BC5DF80CFB000000000000F4
:1070900000F10103810704D010F8011B89B18107B9
:1070A000FAD10268B2F10131914311F0803F04BF7F
:1070B00050F8042FF6E710F8011B11B110F8011B6E
:1070C000FBE7C01A7047FEE7027A914201D3002025
:1070D000704701EB4101081809307047427891422E
:1070E00001D3002070478278101808187047C269D1
:1070F000130018BF1047704780B5002101E080B52C
:107100000121FFF7E1FF0021FFF7E8FF007802BD52
:1071100080B50121FFF7D8FF0121F5E780B508B15F
:10712000032002BD086810F8081F202906D1811C21
:1071300007220C30FDF788F8002002BD062002BDB2
:1071400030B5044687B08B782068202B00F1080208
:1071500002D0222B2ED04EE0B1F80720072A4AD1C8
:10716000202200F8082F0022B1F8071041700023F8
:1071700003A915462CC1811C0391407804908DF819
:10718000002000A8FDF79CF803A92846FEF7E8FABE
:1071900005000BD10FF29C1001A9D0E90023CDE925
:1071A000012302940020FEF7C3FE054600F0BEF85E
:1071B000284621E0B1F80700E8B9107DB1F80310C6
:1071C00000F0010001F00105A842918211D0002DCC
:1071D00014BF022103212046FFF789FF4DB9204645
:1071E000FFF78DFFFCF76FF92046FFF791FFFCF7E3
:1071F0006AF9002000E0062007B030BD10B50C464B
:1072000082B061784A09C90902F0030221D012B1A3
:10721000012A0ED024E0A178062921D10021009175
:1072200000ABE2782179FDF7C4FF010018D0009A85
:107230000BE00068A1780830212904BFB4F80710DA
:1072400007290DD1072200F10C01601CFEF73AFE60
:1072500016BD2AB1012A03D12146FFF771FF16BDE1
:10726000062016BD70B50D460446287800260A286B
:1072700024D8DFE800F02D2D2D2D23060A25292DF9
:107280002D002046FFF7BAFF21E02046FFF734FF2C
:10729000A97888421CD0E878090602D520B90121D6
:1072A00006E020B1012813D0032811D004E000210A
:1072B0002046FFF71CFF0BE0032609E0062607E047
:1072C0002046FEF7BCF902E02046FEF7C2F906466A
:1072D000304670BD82690A604069704780B5FFF72B
:1072E00017FF00A9FCF74AFE08B1002002BD009874
:1072F00002BD70B584B000F009F858BF082003D56E
:10730000FFF706FF00F008F804B070BD0D460168F5
:10731000097FC9071446704700A9002200231646BA
:107320004CC10095019400A9FEF71ABA9DF800001F
:10733000FCF7E1BF1D710F00000000000068D0F8ED
:1073400010254FF47A50414321FA02F0704780B57E
:1073500000F07BF969490020086043F20800BDE8AD
:107360000240006800F09CB9F1E7B0F5A07F04BFCF
:107370001E20FFF744BB704710B50FF21C20604C75
:10738000D0E9002384B001A9CDE9012320465D4A5C
:1073900000F0E2F9FA212046FFF7D0FF0246012073
:1073A000009001230021204600F039FA204600F029
:1073B0001BFA1FBD80B50FF2E810534A0068009019
:1073C00000A91D20FFF732FB01211D20FFF782FBE2
:1073D00001BD80B50FF2CC100068009000A92B20F1
:1073E000FFF7BCFA00A91E20FFF7B8FA00A91F207A
:1073F000FFF7B4FA01BD000038B5FFF788FA00F0D6
:10740000B6FA00F01EFBFFF7D5FFFFF7E2FF0624F8
:107410003E4D29683E4A3F4800BF00BF00BF00BF45
:1074200000BF00BF00BF00BF91422FD000BF00BF10
:1074300000BF00BF00BF00BF00BF00BF00BF00BF54
:1074400000BF00BF00BF00BF00BF00BF00BF00BF44
:1074500000BF00BF00BF00BF00BF00BF00BF00BF34
:1074600000BF00BF00BF00BF00BF00BF00BF00BF24
:1074700000BF00BF00BF00BF00BF00BF00BF00BF14
:1074800000BF00BF00BF00BF00BF00BF401EC3D190
:107490002B20FFF7B4FA641EBBD1FFF76DFF1E4827
:1074A0000FF28401008800F039F8FDF736FC00285F
:1074B000FBD131BD10B50020FDF7F9FA00F008FB53
:1074C0000E48154C0068B1280AD020880FF28001C0
:1074D00000F024F8FDF721FC0028FBD1FFF737FF6F
:1074E00020880FF2940100F019F8FDF716FC00282F
:1074F000FBD1FFF781FF00F0BDF8FCE71C05004061
:107500003C2E00206B730F0069730F00442E002087
:107510000024F400A08601009C3F0020000440F0FD
:107520000300FDF7EEBB00006E524635325F564554
:107530004741202D20426F6F746C6F61646572202B
:10754000496E697469616C697A65642100000000A4
:107550006E524635325F56454741202D20736B6988
:107560007020426F6F746C6F6164657220262072A8
:10757000756E2041707000006E524635325F564580
:107580004741202D2072756E20426F6F746C6F61C1
:107590006465722E2E2E20000000030700000000FC
:1075A000020000010300010020B1022804D00A28D3
:1075B00004D07047FEF7D1BCFDF716BFFDF702BF40
:1075C00080B52B4918B102280AD007D301BDFCF7BA
:1075D000A1FB38B9BDE80140FDF7F2BE002000E094
:1075E0000120487001BD80B50FF2A400FDF719F825
:1075F00000281CBFBDE80240FDF7FCB901BD80B505
:10760000FDF7E0FEFDF7ECFE19490020487001BDD2
:107610001748407870471648417882788A4206D0E9
:107620008170002918BFFDF7CFBEFDF7D9BE7047A6
:1076300010B50F4C207808B1002010BD0FF2540097
:10764000FDF74FFE0120207010BD10B5084C2078CA
:1076500038B1607808B1FDF7C3FEFDF785FE10B9BB
:107660002070012010BD2178481E8041C00F10BD40
:10767000C53E002080B5FDF796FF0028FBD1FFF73F
:10768000CAFF00F0F7F9BDE8014000F085B900003D
:10769000C1750F0000000000A9750F000100000077
:1076A00038B5044600F02AFA0E4D10B10FF2400131
:1076B0000AE00D494FF0FF3008600C490860204691
:1076C00013DF48B10FF24C012888BDE834400004B4
:1076D00040F00100FDF715BB2046BDE8324000F048
:1076E00021BA00009C3F002080E100E080E200E041
:1076F0004661696C65642072756E6E696E67206E96
:1077000072665F6466755F6D62725F696E69745FF1
:10771000736400004661696C65642072756E6E6901
:107720006E672073645F736F667464657669636502
:107730005F766563746F725F7461626C655F6261CE
:1077400073655F736574000081B000220A500858A9
:107750000090009801B07047F8B50C4605465448B3
:1077600029790C2313FB0106307A08B10820F2BDF9
:10777000100001D10720F2BD326000276068706000
:1077800005E0B90001F5A071FFF7DEFF7F1C697904
:107790002868FFB28F42F4D3E17800030016FCF7AB
:1077A000EAFD28686178D0F8042500F017F8C0F8E1
:1077B0000415A178D0F8082500F010F8C0F80815D5
:1077C0002178D0F81025120901F00F0141EA0211C9
:1077D000C0F81015012030720020F2BD920801F0AF
:1077E000030141EA820170470268012111600C2205
:1077F00000792F4912FB001002210172704730B549
:107800004FF4803400688C4000F54175002B00EB8C
:10781000810014BF2C606C60C0F8402530BD70B58D
:107820000468D4F8005240F201168E40B543C4F803
:107830000052D4F800522B43C4F80032049BBDE838
:107840007040DCE72DE9F04104460D4690460027E4
:1078500016E0B80000F5A07636B2305900281FBFF8
:10786000D4F804034FF48031B940084207D03146C0
:107870002046FFF769FF69682A68304690477F1CF9
:107880004745E6DBBDE8F081042209490948D9E70C
:10789000042209490948D5E7042209490948D1E7E2
:1078A000062209490948CDE7062209490948C9E7DE
:1078B000E43D002000800040F03D002000900040AA
:1078C000FC3D002000A00040083E002000A0014038
:1078D000143E002000B00140802801DB7F2070476B
:1078E00010F1800F02DA6FF07F00704740B27047EE
:1078F00038B5284C207B90BB205EB4F9025000289C
:1079000001BF002D21796279914228D0217921721D
:10791000FFF7E2FF60722846FFF7DEFFA072042245
:1079200004F108010FF2740000F089F9B8B90120E0
:107930002073207A607100208DF8000000A8FCF709
:10794000BFFC208894F90910401A208094F90A108D
:107950006088401A60809DF80000FCF7CCFC31BDC7
:10796000032903D10B4900200873C1E7704780B594
:10797000FFF75EFE074900200873FFF749FE08B1D4
:10798000FFF73DFE0FF21400FDF71EFEFFF72BFE82
:10799000012002BDB83E0020AAE70000603E0020A2
:1079A000E88E0F000102010381000000788C0F00B7
:1079B00019000000448C0F0034000000F43E002049
:1079C000948C0F00D88E0F0061790F009C8C0F00F3
:1079D00070B50FF2DC05354CC9B1022903D013D3C1
:1079E00003290ED070BD012020744FF4806204F191
:1079F00014012846FFF77DFC10B3BDE87040FCF78A
:107A0000F9BF0020207470BD0020A07470BDFFF786
:107A100065FC0646207B20B1A268314604F11400C3
:107A20009047207918B10120A671607170BD04F1F2
:107A300014012846BDE870404FF48062FFF759BC3E
:107A400070BD10B5194C607C08B1002010BD2073CA
:107A500020716071FFF7ECFDFFF7DAFD08B1FFF769
:107A6000CEFD0FF24C00FDF7AFFDFFF7BCFD01208E
:107A7000607410BD10B50D4C207900281CBF6079D2
:107A8000002810D000206071A179226804F1140050
:107A9000904704F11401BDE810404FF480620FF2EA
:107AA0001000FFF726BC10BD000000006832002067
:107AB000203E0020608F0F000203010604020484B0
:107AC00083030000608D0F0042000000D1790F0099
:107AD00010B500F04DF9084C04212046FDF707FAD7
:107AE0000120607200F08FF9042104F10C00FDF711
:107AF000FEF90120607510BDF02D00201FB50FF2BA
:107B000014000FC800AC84E80F0000A818DF04B010
:107B100010BD000002000000000000000000000096
:107B200000000000F0B501460D6885F3088848683C
:107B30000024E443EFF30585002D07D1EFF3148112
:107B40000222914381F31488A64600472546064643
:107B500021273FBAF0B40024002500260027F0B406
:107B60000620C0430047F0BD027A914201D30020B5
:107B7000704701EB41010818093070474278914283
:107B800001D3002070478278101808187047000051
:107B900010B5012202FA01F1CC4350E8003F03EA9C
:107BA000040240E8002191F0000FF6D110BD000062
:107BB000F0B5074685B0386800F108040021384662
:107BC000FFF7D2FF0021FFF7D9FF032105782046F8
:107BD000FFF7DEFF386B00F01EFA08B100202CE042
:107BE00007F1100000F047FB0646386B00223146D3
:107BF00000F0BDF901A8002100220B460EC030683C
:107C00000190706802908DF8001000A8FCF758FBF6
:107C100001A92846FDF7A4FD050009D1082354E871
:107C2000002F42EA030144E8001090F0000FF6D163
:107C30009DF80000FCF75FFB284605B0F0BD7CB561
:107C400004462068009100F10805019200A9206B0C
:107C500000F037F908B1112076BD286800264007EA
:107C600002D5FDF7CBFB06E02868000703D42046C9
:107C7000FFF79EFF0646304676BD42680A60006800
:107C800070470620704780B50A4608B1032002BD40
:107C90001046D26A02219047002002BD30B504464A
:107CA00087B0606A0268C9781170002203A90023B6
:107CB00015462CC10168491C039140688DF80020CD
:107CC000401E049000A8FCF7FBFA03A92846FDF724
:107CD00047FD05000BD10FF2900001A9D0E9002368
:107CE000CDE9012302940020FEF722F905469DF814
:107CF0000000FCF700FB284607B030BD38B504464D
:107D0000206800F10805206B00F085F928B10321F7
:107D10002846FFF73DFF002032BD2046BDE8324037
:107D200046E73EB504460021FFF71EFF0121FFF79D
:107D300025FF616A00AA002300241D4638C20A6894
:107D400000924968019100A90078FDF709FD3EBD48
:107D50000B46016801F1080200F1100100F018BAA9
:107D600010308AE700000000877C0F000000000050
:107D700000F032BBF8B515000C460DD000260A27DE
:107D80002A463119002000F0FFFA86192D1A08B989
:107D90007F1E01D0002DF3D1F1BD80B5034A0092C2
:107DA0004023034A00F026FB01BD0000757D0F0053
:107DB000643D0020704770472549012008707047D6
:107DC00030B589B004460FF29C01214D00A891EC1A
:107DD000080B80EC080B06200090002C4FF0FF30C1
:107DE00001900290039014BF1A4A00224FF0EB70EA
:107DF000069000A9281DFEF779FA08B1FCF7FAFDF4
:107E00006C7009B030BD0120DAE710B5104C0020CD
:107E10002070D2B2201DFEF7EAFA08B1FCF7EAFDA5
:107E2000607810B120780028FCD010BD80B50A4AD7
:107E300000924023094A00F0DDFA01BD704780B589
:107E40000748FEF784FABDE802400020B8E70000CA
:107E5000302E0020B97D0F000B7E0F00A43D0020C6
:107E6000342E0020FFFFFFFFFFFFFFFFFFFFFFFF9C
:107E7000FFFFFFFF00000000000000000000D6012F
:107E8000070100008068814201D2481C7047002031
:107E9000704701680A684968914201D3881A70479F
:107EA0008068401C801A0818704710B501680C687B
:107EB0004968FFF7E7FFA04201D1012010BD002073
:107EC00010BD2DE9F04182B0044600250E468DF824
:107ED000005000F097F82046FFF7E7FF5FEA000840
:107EE0001CBF207C00283CD12068476800F085F842
:107EF0002168B8F1000F486004D0096800F07EF8EE
:107F000021680860E268012A06D0022A08D0042A03
:107F10000BD0082A0ED015E061683078785417E04D
:107F20006168308821F8170012E06168306841F814
:107F300027000DE06268D6E9000102EBC702C2E942
:107F4000000105E06068314602FB0700FCF77CF9A0
:107F500000F05BF821688A68824238BF02468A6076
:107F600000E0042500F053F82846BDE8F6812DE92D
:107F7000F04182B0044600260D4690468DF8006020
:107F800000F040F8204600F046F880BB2068076803
:107F9000B8F1000F04D1016800F030F821680860E2
:107FA000E268012A06D0022A08D0042A0BD0082A47
:107FB0000ED015E06068385C287019E0606830F811
:107FC0001700288014E0606850F8270028600FE050
:107FD000606800EBC700D0E90023C5E9002307E093
:107FE000606802FB07012846FCF72EF900E0052631
:107FF00000F00DF83046BDE8F6814168204641E7C3
:108000008DF8007000A8FCF75BB9204641E79DF8A9
:108010000000FCF770B9006801684068814201D136
:10802000012070470020704710B5012202FA01F4C8
:1080300050E8003F43EA040240E8002191F0000FBD
:10804000F6D110BD10B5012202FA01F1CC4350E87F
:10805000003F03EA040240E8002191F0000FF6D14E
:1080600010BDCB6919001CBF11461847704738B5C1
:108070001D460C46697801F01F01012904BFA9784B
:10808000062913D10021009100ABEA782979FDF788
:1080900090F8010018BF009A04D12879222805D150
:1080A000E268A168681CFDF70DFF32BD062032BDF5
:1080B00038B50C4611465A78D50927D0520912F026
:1080C000030202D0012A06D047E00A46214601B049
:1080D000BDE83040CBE79A78012A0ED03DD3032A81
:1080E00001D003D339E00122093101E00122083136
:1080F000581CBDE83840FDF7E5BE197901292CD19F
:108100001946A2691268BDE838401047520912F0BA
:10811000030222D0012A20D19A78092A12D01CD336
:108120000B2A01D00AD318E0B3F803204A724A7A26
:1081300002B101222146FFF794FF01E0187908728D
:10814000002032BD1979022907D1A269116821B135
:108150001946BDE8384052681047062032BD70B558
:108160000446D8780D46164618B903222046FFF774
:1081700078FF706828B103213046FFF763FF0020C5
:1081800070BD2046A9698968BDE8704008470000B5
:10819000F8B50446187800270A280D4616462ED84A
:1081A000DFE800F0061D3A3C2D1F2346525E6300B7
:1081B000307A00285DD05988800091FBF0F200FBF6
:1081C0001210002855D1706848B93068400702D5B0
:1081D000FDF714F94DE0306800074AD422E003218E
:1081E00044E02046FFF764FF20E09878000603D5BE
:1081F0002046FFF7B4FF19E0A869C06808B9062750
:1082000037E0D87818B902222046FFF72AFFA9697B
:10821000C9682046884709E0022122E00221304651
:10822000FFF710FFA969896820468847074620E0C4
:108230002046FDF704FA07001BD12046FDF71AFA85
:10824000070016D100210CE02046FDF702FA0700D6
:108250000FD12046FDF712FA07000AD1002105E0F0
:1082600001213046FFF7E0FE03E001213046FFF731
:10827000E9FE3846F2BD00697047FEE710B5DFF849
:108280005C4104F17801E1610220206160614FF4FA
:108290000071216200210FF24810A061A162A06468
:1082A000616204F51E70E064E16210202065A16542
:1082B0006165E165042247A1E01DFBF7C5FF0722C8
:1082C0000FF228112046FBF7CFFF2020A07110BD30
:1082D0002DE9F84304468846E56816464FF0000944
:1082E0002069A168491B854234BF401B4018471EC6
:1082F0008F4228BF0F46B742606888BF37463A466C
:1083000041462818FBF7A0FFA068F61B7D1985429F
:1083100008BF0025002EB944B844E560E0D14846C6
:10832000BDE8F2832DE9F0410446E768A068C51B6B
:10833000606816463818AE42884603D2FBF784FFC1
:10834000F61909E02A46FBF77FFF761B6068324684
:1083500005EB0801FBF778FFE660BDE8F0810169F5
:10836000C2688A4204D38068401E801A0818704789
:10837000881A401E70471546DFF86010182202FB6D
:10838000001000F11806704770B50C46FFF7F3FFB8
:10839000706918B1022813D006D318E03046FFF7F1
:1083A000DEFFA84206D212E03046FFF7D8FFA8420F
:1083B00098BF05462A4621463046FFF7B3FF07E03F
:1083C0002A4621463046FFF783FF054600E0002598
:1083D000284670BD5254540050E700007C360020FF
:1083E0005465726D696E616C00000000534547472B
:1083F00045520000F0B50C4695B015461E46204685
:10840000FCF708FE0FF2C80109A891EC060B80ECFE
:10841000060B1A980E9009950A960023082201A9C6
:108420002046FCF750FE0398049008250298ADF80A
:10843000140000208DF81800019800F003000128B6
:10844000019818D1850AC0F3C2008DF816000823E0
:1084500000F036F80FA90198C0F38316B200204649
:10846000FCF731FE09A8009004AB32460FA928465C
:1084700000F076F81FE000F0030002281BD10198FD
:10848000860DC0F3C2008DF8160000F019F8082719
:10849000082E98BF37462B463A4607A92046FCF7D8
:1084A00012FE09AB04AA394607A800F099F87D1915
:1084B000F61B002EEBD12046FCF7BAFD15B0F0BD3F
:1084C0000198800800F001008DF817007047000047
:1084D000000000000000000000000000000000009C
:1084E000000000000000000070B504460D46E07971
:1084F000E0B9207A684E50B1A179A088FCF725FB3D
:1085000006EB80005EA142692846FEF7AEFDA0881A
:108510000021FCF70DFB0346A07956F820200FF24E
:1085200084112846BDE87040FEF79FBD70BD38B588
:108530000C46C17953A541B9007A38B10FF25C12EB
:108540004FA12046FEF791FD00E01AB129462046D2
:10855000FEF78BFD2046BDE83240FEF77BBD0000F4
:108560002DE9F04385B081460C9D2E7B00202873B9
:108570000C469846174629464046FFF7B5FF062F9A
:1085800025D8DFE807F004090F1C1A181600494621
:108590002846FEF76AFD1AE0226849462846FEF79B
:1085A00064FD14E06368226849462846FEF75DFDD5
:1085B0000DE06069039020690290E06801904946EF
:1085C000A0680090636822682846FEF74EFD0022EE
:1085D00029464046FFF7ABFF2E7305B0BDE8F08398
:1085E0002DE9F84F0D46092D044691469A4644D28E
:1085F0009AF80C800FF2B80B00208AF80C00514654
:108600004846FFF771FF00261FA7AE4205D2325D34
:1086100059465046FEF729FD03E039465046FEF71D
:1086200024FD761C082EF0D318A15046FEF71DFD40
:108630000026AE4213D2375DA7F120005F2808D391
:10864000384600F039F820B9384600F03FF800B954
:108650002E273A460EA15046FEF707FD03E00DA176
:108660005046FEF702FD761C082EE2D30122514649
:108670004846FFF75CFF8AF80C80BDE8F18F0000E8
:10868000257300000D0A0000202020007C0000005F
:108690002563000020000000B82D00201B5B306D1A
:1086A000000000003C25733E2025733A20000000A6
:1086B000202530327800000010B50446012000F07B
:1086C0000FF82046BDE8104000F016B810B504467B
:1086D000012000F005F82046BDE8104000F017B872
:1086E00010B50446DFF80C0000F023F850F8240021
:1086F00010BD00004C2D0020A0F161011A2901D20B
:108700000120704741381A288041C00F7047A0F1FE
:1087100021010F2921BFA0F13A010729A0F15B0136
:10872000062904D37B3804288041C00F70470120FC
:108730007047704710B555480168082904BF416863
:10874000002906D1524900220A604A600021514A9C
:1087500011600168082904BF4168002923D14E4AED
:108760004E4913680B6053684B6093688B60D36805
:10877000CB6013690B6153694B6193690B62D369D9
:108780004B62136A8B62536ACB62936A0B63D36A40
:108790004B63136B0B64536B4B64936B8B64D36BA6
:1087A000CB64126C0A650168082904BF416800297E
:1087B00002D13B4A3B4911600168082904BF416866
:1087C000002902D1384AFB2111600168082904BF41
:1087D0004168002909D13549354B0A681B781209CF
:1087E00003F00F0343EA02120A600168082904BF7C
:1087F0004168002903D12F4A4FF4007111600168CC
:10880000082904BF4068002806D12B480168C90721
:1088100044BF6FF0010101602848C16F41F470014D
:10882000C167BFF34F8FBFF36F8F25490A68002AD6
:108830005CBF4A68002A21D5224A01231360224BDB
:108840001C68002CFCD012240C601C68002CFCD08E
:1088500012244C6019680029FCD0002111601968AD
:108860000029FCD0BFF34F8F0168184A01F4E06182
:1088700011430160BFF34F8F00BFFDE7014902487C
:10888000086010BD442E00200090D003300100107D
:108890000C010040380500400404001020C50040D1
:1088A0008C5600404881030018F50040E40E00405B
:1088B0005802001040960240000400400CED00E019
:1088C0000012001004E5014000E401400400FA0534
:1088D00030B5044685B0206880680D46E0B100A838
:1088E0001421FDF77BF80195A0680490207910B160
:1088F000012805D00CE001208DF80000206904E07B
:1089000002208DF80000E068000302906069039087
:1089100000A821688968884705B030BD10B54F4C64
:10892000207A38B904F1B40104F1A400FDF71AF873
:10893000606190B3022020726069017911B1012950
:1089400013D024E083694169C91AB1F5805F09D267
:108950008A08022A38BF0122C1680069591818180C
:1089600029DF06E04FF48062F6E7C168006940182D
:1089700028DF10B1112807D009E0207C70B9BDE8CC
:108980001040002102200BE00120207210BD606920
:108990000321FFF79DFF00202072606010BD0000E2
:1089A00010B52E4C217A012924D002293ED102286B
:1089B00002D0032823D01DE060690021E160017925
:1089C00059B1012916D10169491C016140698142EF
:1089D00010D10020207200211AE081694269521AE8
:1089E000B2F5805F88BF4FF48052511881614069B1
:1089F0008142EED0607CA8B9BDE810408EE7E06807
:108A0000401C0928E060F5D30020E06020720D21B1
:108A10006069FFF75DFF04F1B40104F1A400FCF705
:108A2000CDFFE7E7BDE81040FBF77DBF10BD0B4869
:108A300001214174017A481E8041C00F704701280E
:108A4000064903D100204874012003E0032803D124
:108A500000204874087461E770470000D03B002094
:108A6000816807E002681168536889185B18C36061
:108A700008320260C2689142F4D04A1C82600878D1
:108A800070472DE9FF4D00F10801009100270268B1
:108A9000520801EBC2010191B846002102910391F5
:108AA0000168490800EBC101406800F0010501F1CF
:108AB0000804400804EBC00630E000A8FFF7D0FF30
:108AC0004FFA80FA0AE000980168081800990290AD
:108AD000496808180390009808300090029803999C
